:10000000A02B0020E9220000D9C50000BD2200007D
:10001000BD220000BD220000BD2200000000000043
:10002000000000000000000000000000F51B0000C0
:10003000BD22000000000000A11B0000CDD900007F
:10004000AD1C0000E3D20000AD1C0000AD1C0000A0
:10005000AD1C0000AD1C0000AD1C0000AD1C00007C
:10006000AD1C0000AD1C0000AD1C0000AD1C00006C
:10007000AD1C0000AD1C0000AD1C0000AD1C00005C
:10008000AD1C0000AD1C0000AD1C0000AD1C00004C
:10009000AD1C0000AD1C0000AD1C0000AD1C00003C
:1000A000AD1C0000AD1C0000AD1C0000AD1C00002C
:1000B000AD1C0000AD1C0000AD1C0000AD1C00001C
:1000C000AD1C0000AD1C0000AD1C0000AD1C00000C
:0C00D000AD1C0000AD1C0000AD1C0000C9
:1000E00053B94AB9002908BF00281CBF4FF0FF319F
:1000F0004FF0FF3000F00CB8ADF1080C6DE904CE04
:100100000BF0B0F9DDF804E0DDE9022304B070473C
:10011000704700BF000000002DE9F04B8CB020B903
:1001200005F01EFF0CB0BDE8F08B534C94F83E5028
:1001300015F0010540F0988094F82000FF23800915
:1001400084F8213006F0EAF894F83E0042070DD515
:100150002A4604F13F01C0F3C00006F029FAFF2847
:1001600084F8210002D0284606F0F2F894F82530F1
:1001700004EB83039D6A94F8313004EB83035E6BD8
:1001800055B129463C480CF0D4FF2B785B0612D4BD
:10019000314639480CF0CDFF94F820300121C3F3EB
:1001A00002030DF12B008DF82B300CF0AAFC024657
:1001B00040B90C20B6E706210CF077FC0028E7D107
:1001C0001220AFE7717828460CF06BFF0025312331
:1001D000C4E90235294B257080B2A0FB0301C4E9B4
:1001E000055523A3D3E90023E4616560FFF778FF99
:1001F000A68F20610CF028FF2369214A03F24711E2
:10020000116009921F4ACDE906421F4A81461F48E4
:10021000CDE904321FFA86FB4FF6FF73CDE9025396
:10022000ABFB000191234FF002080BAF03FB0B1156
:100230000FA3D3E90023CDF82C800897FFF750FFD8
:100240000321CDE900504B464246284604F01CFBF2
:10025000394605F085FB0028ABD194F83E3043F0D9
:10026000010384F83E305DE700205BE7AFF30080D8
:100270008D49FD1A070000009410002000CA9A3B27
:10028000DC100020AD540000B95C0000002AE784B7
:1002900070B590F820308AB0C3F302030D460446CF
:1002A00001210DF1230016468DF823300CF029FCB6
:1002B0007178024628460CF0F4FE1D4B80B2A0FB7C
:1002C000030119A3D3E90023FFF70AFF21690546BB
:1002D0008D421FD2481B0021164A02230993A21AFD
:1002E0004823B2FBF3F2144B059309AE002302320C
:1002F000CDE9011006960321CDE903330093D2B274
:1003000018460CF089FE314605F02AFB40B92561FC
:100310000AB070BD02D9691A0020DDE70020F7E7B6
:100320000C20F5E7AFF300808D49FD1A07000000AF
:1003300000CA9A3B94100020AD54000030B501462D
:1003400089B020B10E480BF037FA09B030BD0D4D21
:100350000D480BF031FA0FCD03AC0FC42B682360AE
:100360000123009309490A4B032203A803F0D6FC9A
:10037000014608B10748E6E707480BF01DFAE4E735
:100380007CEA0000E0E700009CEA000038E800009A
:1003900050E80000B3EA0000D9EA000008B50748B9
:1003A0000BF00AFA064803F007F8014620B10548A9
:1003B000BDE808400BF000BA08BD00BFE9EA000044
:1003C0003D0300007CEA00000B6801330B60014B29
:1003D0001B68184718010020014B1860704700BFC8
:1003E0001801002007B50023019302460B4603487D
:1003F00001A900F0F7F803B05DF804FBC9030000A1
:1004000030B585B0CDE901010446002501A90548B4
:10041000039500F0E7F8DDE902309842B8BF2554B3
:1004200005B030BD93B700002DE9F84FB0F8189033
:1004300019F0080804460DD001290CBF49F0100935
:1004400049F02009A0F8189082F31188BFF36F8F4C
:10045000BDE8F88F09F00709022907D120460BF003
:10046000C5F90028F0D00128238B4AD16769238B76
:10047000002F15DA2568C4E9008823F0070343F04C
:10048000010323830026238B03F0070ACA4502D009
:10049000A168002956D10DB9002E6DD0002152E07F
:1004A00003F00701481F01281CD823F00703062981
:1004B00025689BB2C4E900880AD13DB1618B28460A
:1004C0000068013189B20028FAD1618343F0020348
:1004D000238320460BF08AF90028D3D0238B43F0E6
:1004E0002003CEE704290AD123F0070399B2218320
:1004F00020460BF07BF910B141F02001218300254B
:10050000C0E7032809D1216923F007030E6843F0EF
:100510000603238300252F46B5E7042806D1216969
:1005200023F007034E6843F00403F2E7052806D1E1
:10053000216923F007038E6843F00503E9E70025EE
:100540002E46E8E7012143F00803238382F3118854
:10055000BFF36F8FF9B985BB16B121492046B0476B
:100560004FF02003EFF3118283F31288BFF36F8FF4
:10057000238B23F008032383238BD90627D523F06D
:10058000100323830121B4F8189009F0070900290A
:100590007FF462AF58E7A1680029DCD0D1F8009061
:1005A000D1F804B03B4652462046D847B9F1000F77
:1005B000D1D04946D9F80090F2E7D5F80090294605
:1005C0003B46524620460BF02DF94D46C3E713F04B
:1005D00020011EBF23F0200323830221D3E700BFA5
:1005E00051B800002DE9F04F93B08A46039093462E
:1005F0001C4600259BF8000008B928461AE3252868
:100600000BF1010707D05146039B98470028C0F221
:100610001183013502E2182200210CA80CF037F8F2
:100620009BF80130252B7CD00022CDE90422BC466A
:1006300010469146164690461746964663461CF865
:10064000011B2B2900F09F8000F29580202900F0EB
:100650009D80232900F09D802FB19DF838706EF3A6
:1006600082078DF838702EB19DF8386068F3C306A4
:100670008DF8386028B19DF8380069F304108DF8C2
:100680003800049828B19DF8380040F020008DF81B
:10069000380032B19DF83820059860F386128DF845
:1006A00038209DF8382002F04400442803D16FF32D
:1006B00086128DF838209DF838202A2942F08002D1
:1006C0008DF8382040F081805A1C9DF8393043F075
:1006D00001038DF8393013782E2B9DF839300CBF7B
:1006E0000121002161F341038DF8393079D153782C
:1006F0002A2B6FD0013200210A26104610F8013B48
:10070000A3F13007092F40F293809DF83830109103
:10071000C3F3400040EAD17161F341038DF83830F2
:100720005FE00BF102078DF83B309DF83930DE07B2
:1007300040F11B8154F8049BB9F1000F07DA9DF8D2
:10074000382042F004028DF83820C9F1000958071A
:1007500040F11481234653F8048BB8F1000F80F266
:1007600027819DF839206FF341028DF839201C460E
:100770004FF0FF3807E12D290ED030297FF46CAF00
:10078000012205925AE70126B04657E7012081462B
:1007900054E70123049351E70127BE464EE70CFBC3
:1007A000010130393246164616F8010BA0F1300728
:1007B000092FF4D993428ED09DF838300F91C90F8C
:1007C00061F341038DF8383085E71A4600214FF078
:1007D0000A0CE8E79DF8393043F004038DF839300E
:1007E0000232174617F8013B6A2B47D025D84C2B0D
:1007F00050D0682B2ED0174617F8012B8DF83B20D0
:10080000672A9DF8393060D8652A55D2582A00F0F9
:1008100098804CD8412A4FD002D3453A022A4BD96E
:100820009DF8383043F001038DF8383000236AE03A
:1008300006FB0131303902465FE7742B26D07A2B54
:1008400020D06C2BD7D153786C2B9DF8393013D135
:10085000042105E05378682B9DF8393006D1012139
:1008600061F3C6038DF83930971CC5E7022262F3A5
:10087000C6038DF83930BFE70322F8E79DF8393019
:100880000522F4E79DF839300622F0E79DF839306B
:100890000722ECE7BDF8383023F4F04323F00203DD
:1008A00043F4804343F00203ADF83830A4E7632AF1
:1008B00047D012D8612AB3D19DF83A30042262F3AE
:1008C00002038DF83A3001231DE0702A2CD024D881
:1008D0006E2A3AD035D8692AA2D19DF83A10012063
:1008E00003F0780360F30201402B8DF83A1002BF49
:1008F0009DF8381041F001018DF83810632A95D128
:10090000003318BF01239DF83820C2F340010B4388
:1009100063F341028DF8382007E7752A11D0782A51
:100920000FD0732A7FF47CAF9DF83A20032113F097
:10093000780F61F302028DF83A2014BF01230023DF
:10094000E1E79DF83A100220CAE79DF83A2003F04B
:100950007803A3F1400C032161F30202DCF10003F0
:100960008DF83A2043EB0C03CDE79DF93820002A9F
:10097000B4BFDDF83C904FF0FF39E8E699077FF50A
:10098000F7AEDDF840809DF839200023CDE90F3324
:100990009DF83A3003F00703012BC2F3C3023FD1A5
:1009A000D31E042B14D8DFE803F0050D0D1313003C
:1009B0001C46E8E7234653F8040BC117CDE90C01A8
:1009C0001C461CE0073424F00703F3E80201F5E7B6
:1009D0002346012A53F8040B4FEAE071CDE90C01DC
:1009E0001C4605D19DF830300C9300230D9306E092
:1009F000022A04D1BDF93000C117CDE90C019DF8E0
:100A0000383013F003063FD03B465A465146039810
:100A10000BF098FA0028C0F20D810544BB46E9E5C9
:100A2000022B20D1D31E042B0ED8DFE803F00309DC
:100A3000090D0D0020680C900021231D0D91BFE7CA
:100A4000E31D23F00703C0E72346012A53F8041BE4
:100A50000C914FF000010D911C46C3D0022ACED15B
:100A6000BDF83030C0E7042B07D1E31D23F00704A5
:100A7000F4E80201CDE90C01C1E7032BBFD1234605
:100A800053F8041B0C919BE79DF83B006E2800F087
:100A9000A9803DD8632872D022D825283FF4B3AD71
:100AA0005828BBD10DF12E0300930EAA06ABDDE949
:100AB0000C010BF0FAF98346B8F1000F0DF12E008E
:100AC0000CDB9DF83820A0EB0B036FF386129845E2
:100AD0008DF8382002D9A8EB03030F93804646E037
:100AE000642801D0692899D11A0779D413F0100F1E
:100AF0000CBF00262026DDE90C23002A73F100013B
:100B0000D0DA524263EB4303CDE90C232D26C9E72B
:100B1000732820D01BD86F28C4D070287FF47EAFF4
:100B20000C98002873D00DF12E0300930EAA06AB8B
:100B300031460BF0BAF9BDF83A3003F0EF0343F455
:100B4000F04343F010038346ADF83A30B4E775281C
:100B5000A8D07828A5E7B8F1000FDDF830B00ADB9F
:100B6000414658460BF063FD0BEB00080026BBF135
:100B7000000F0BD152E758460BF052FDF4E70C9BE7
:100B80008DF818300DF119080DF1180BA8EB0B03B7
:100B900006B101339DF83A20D0063ED50233520605
:100BA0000F9948BF109A0B4448BF9B18B9F1000F2A
:100BB0004DDD9DF83820A9EB0309C2F380030493AF
:100BC000002B44D1500638D546B151463046039BE0
:100BD000984700282EDB049B01351E4630232DE06C
:100BE0002B2688E70C9B072A3FF618AFDFE802F0B8
:100BF0000D04060D08080D0D1D700FE71D800DE793
:100C00002846E917C3E9000108E71D6006E7DFF899
:100C1000C8800646A8F1050BB8E7110748BF0133A5
:100C2000BDE7184604935146039B984700284A465F
:100C3000049B05DA13B0BDE8F08F20234A464D44EB
:100C4000002AA5EB020102F1FF39EADC0D4636B1BC
:100C500051463046039B98470028EBDB01359DF851
:100C60003A30D90601D41A0706D551463020039BE5
:100C700098470028DEDB01359DF83A30DB0607D5C2
:100C800051469DF83B00039B98470028D2DB013575
:100C90000F9E2E44731B002B16DC43465A465146CA
:100CA00003980BF04FF90028C4DB0544A944A9EBD5
:100CB0000503002B7FF7B2AE51462020039B9847D7
:100CC0000028B7DB0135F2E751463020039B9847F7
:100CD0000028AFDB0135DDE710EB000030B5002266
:100CE00089B00F490F480DF065FA0F4D0F490022EA
:100CF0000023CDE9062300240E23CDE90334CDE9FA
:100D0000014400940A4B4FF44072284609F0DEF982
:100D1000084928460CF03BFF204609B030BD00BF13
:100D2000390D000068040020A0040020E01B002012
:100D30004111000011EB0000014809F061BB00BF48
:100D4000A80300200C4A002310B513700B4A13604F
:100D50000B4B0C4A1A604FF4004000F0B1FC00F05D
:100D60006DFA09480BF005F908234822074908489D
:100D7000BDE810400CF0C1BE97150020840800208B
:100D80001C010020B1BF00008C0800206039002049
:100D90009408002070B5124BBFF35B8F53E8005FDF
:100DA0006A1C43E800210029F8D1BFF35B8F2DB9FD
:100DB0000C4C0D4E361B3611B54200DB70BD237B4B
:100DC00053B123689B690BB120469847636804229E
:100DD0001968204600F024FA01351034ECE700BF12
:100DE0008808002090E70000B0E7000010B54FF041
:100DF0002003EFF3118483F31288BFF36F8F04484D
:100E00000BF0C7F884F31188BFF36F8F10BD00BFDC
:100E10008C08002010B5044C227812B9034809F060
:100E2000EFFA0123237010BD96150020A8030020BF
:100E3000064BBFF35B8F53E8002F013243E80021DC
:100E40000029F8D1BFF35B8F704700BF84080020F2
:100E5000064BBFF35B8F002053E8002F43E80001EF
:100E60000029F9D1BFF35B8F10467047840800203A
:100E7000F8B5FFF7EDFF0A4C0A4D2D1B07462D1163
:100E80000026AE4200DBF8BD63685B792BB12368B6
:100E90001B6913B139462046984701361034F0E7F4
:100EA00090E70000B0E70000164B984237B50446C3
:100EB00002D3154B984220D30022002301A91348E6
:100EC00009F0A2F80546D8B90122019BBFF35B8F58
:100ED00053E8001F43E800200028F9D1BFF35B8FDF
:100EE00001982146412204300BF087FB019C7E23B0
:100EF00084F8453084F846500434204603B030BDB1
:100F0000034CFAE790E4000010020100940800206E
:100F10005DEB000050B1064B984206D303F5107309
:100F200098422CBF0020012070470020704700BF6E
:100F300060390020444B1B782DE9F74F054603B973
:100F400000B3FFF753FF044678B1BFF35B8F3F4B0D
:100F500053E8002F013A43E800210029F8D1BFF3FC
:100F60005B8F9DB120460BF028F92DB9384B1B68DB
:100F7000002B01DDFFF77CFF36480BF008F8051C5D
:100F800018BF0125284603B0BDE8F08F324B1B780F
:100F9000ABB9237ADB0712D40BF022F98146204645
:100FA0000BF0EBF8014648460BF006F82B4B2C4AA9
:100FB000DFF8C4B09B1A0746C3F3C90A37B9294EF4
:100FC000294FBF1B3F114FF000083AE0B7FA87F6F0
:100FD000C6F11F06314620460BF0D2F8234B98424B
:100FE000024602D3224B98421AD31046FFF792FFD3
:100FF000B0B9204B9A4213D06189890900F002F9F7
:1010000028F03F0343F0010363F307086AF38F18E6
:101010000246ADF800804B46314658460BF025F8A5
:10102000012303FA06F627EA0607C7E773685B7928
:1010300023B1336821465B683046984708F10108C0
:101040001036B845F2DB8DE79615002080080020A9
:10105000840800208C0800209715002058E7000025
:10106000A8E6000090E70000B0E7000090E4000070
:10107000100201005DEB00001DEB0000294B37B5AD
:101080001B68418104469847E0604FF02003EFF36E
:10109000118583F31288BFF36F8F234821460AF02E
:1010A0006CFF85F31188BFF36F8FBFF35B8F1F4B0E
:1010B00053E8002F013243E800210029F8D1BFF3A3
:1010C0005B8F1B4A127882B14FF02003EFF311843B
:1010D00083F31288BFF36F8F0020FFF72BFF84F399
:1010E0001188BFF36F8F03B030BD124A1B681268BE
:1010F000002AF8D0012B0AD100220023CDE90023D9
:101100000D484FF4004200230AF082F8EBE70A2B67
:10111000E9D109480DF05AF8084803B0BDE830405D
:1011200009F06EB91C0100208C0800208008002006
:1011300097150020B008002068040020A8030020B4
:1011400010B5FFF727FE09F023FE0C4B186030B1F5
:101150000B4B1B68092B02DD0A4809F051F9094CB9
:101160000020FFF7E7FE0028FAD14FF0FF324FF0E2
:10117000FF33204609F06AF9F2E700BFB00800200B
:1011800080080020A8030020F8B50E4F3D7875B9FF
:101190000D4C0E4EFFF7FEFD361B3611B54207DB38
:1011A0000020FFF7C7FE0028FAD101233B70F8BDED
:1011B00063685B791BB1236820465B6998470135FA
:1011C0001034EBE79715002090E70000B0E700002F
:1011D00007B504380190BFF35B8F50E8003F5A1EFB
:1011E00040E800210029F8D1BFF35B8F012B03D128
:1011F00001A903480CF09CFC03B05DF804FB00BFA0
:1012000094080020044A054B9B1AB1EBD30F34BF5E
:1012100052F8310000207047A8E6000090E7000077
:10122000054B4268C31A1B11013313714368012235
:1012300019605A71FFF7EEBD90E7000020231A46AF
:10124000014902480CF059BCA03B0020B408002022
:1012500037B50023094D01930120FFF76BFE0446CB
:10126000FFF7E6FD0022002301A9284608F0CCFE86
:1012700008B1002CF0D1019803B030BDB4080020B3
:1012800007B5002301930022002301A9054808F0B7
:10129000BBFE10B1FFF7DCFF0190019803B05DF8D1
:1012A00004FB00BFB4080020F0B5047A457A85B08D
:1012B00014F0010401904FEA15151BD1D5B1264653
:1012C000314601980AF05CFF0746FFF723FE70B134
:1012D00034B9019B294618690AF06EFE044648B1EC
:1012E00024FA06F3D90702D53846FFF771FF013615
:1012F000AE42E5D3019B1A7A920704D55B69084C8C
:101300000393039B2BB901A905480CF011FC05B010
:10131000F0BD1D6803A920460CF00AFC0395F0E718
:10132000B40800200EB403B503AB014653F8042BF8
:1013300004480193FFF756F902B05DF804EB03B0DF
:10134000704700BF89C500002DE9F04F87B0924675
:1013500011F0020401F0010207469DF84080BDF93A
:101360004890059201F0080507D011F0440F38D1DC
:101370001A463249FFF7D6FF0446059B53B1304B5E
:10138000304953F82820304B3846002A08BF1A4607
:10139000FFF7C8FF3DB12D4B2D4953F828203846A3
:1013A000FFF7C0FF0546B9F1000F16DBBAF1000FD9
:1013B00041D0012303FA08F8264B274E18F0100FEE
:1013C00018BF1E4649469DF84400FFF71BFF3146F3
:1013D00002463846FFF7A6FF0544281907B0BDE8C6
:1013E000F08F1E4A116821B31D4A4FF4616C1468D6
:1013F000B3FBF4F34FF47A76B3FBF1F4B4FBFCF2F5
:101400000CFB124C01FB143474434FF03C0EB4FB44
:10141000F1FB01FB1B44BCFBFEF37443B4FBF1F195
:10142000CDE901B10EFB13C100910E49FFF77AFF20
:10143000A2E70846A0E7084EC4E700BFC1EB0000E2
:1014400058E8000047F10000B3EB00006CE8000032
:10145000E6EB0000BDEB0000B8EB0000D008002078
:10146000D4080020CAEB000038B50C46E107054659
:1014700003D5084A0849FFF755FFE20608D4A3063A
:1014800028464CBF05490649BDE83840FFF74ABF2A
:1014900038BD00BFB3EB000047F10000A5EB000032
:1014A000A4EB00002DE9F0479846089BDD060446B2
:1014B0000E46174605D499064CBF29492949FFF71E
:1014C00031FFDFF8A890002545452ADBDFF8A08032
:1014D000DFF8A090DFF894A00025AF422ED9725D0E
:1014E00049462046FFF71EFF0135102D1FD11E492A
:1014F000DFF87880DFF880902046FFF713FF0025A3
:10150000AF4227D9725DA2F120035F2B28BF2E22A4
:1015100049462046FFF706FF0135102D13D1BDE8DF
:10152000F08749462046FFF7FDFE0135CCE76A0704
:10153000D3D151462046FFF7F5FECEE7414620467F
:10154000FFF7F0FED0E76B07DAD141462046FFF700
:10155000E9FED5E741462046FFF7E4FEDCE700BFA1
:10156000A5EB0000A4EB000081EB00007FEB000086
:101570007DEB000077EB000083EB00002DE9F047E6
:101580008B7A13F0070417468AB005460E460A7A8E
:101590001CD04989C3F3C2038909D2430291CDE922
:1015A000004302F00102F3683946FFF7CDFE8146A1
:1015B000337ADA070CD4294630460AF07BFE4CB366
:1015C000224639462846FFF74FFF23E0A146EFE7C2
:1015D00034BB2746EB68069306AA3B46A96830460B
:1015E0000AF054FE069A6B681A603AB1AB6813446D
:1015F00013F8014CA4F10A035C425C4128460AF04E
:10160000B6FF069B1F44002BE4D11CB114492846A9
:10161000FFF788FE28460AF0AAFF0AB0BDE8F08767
:1016200030460AF0DDFD0F4902462846FFF77AFEF4
:101630004FF000084FF0100A05AA434606A93046AD
:10164000CDF814A00AF022FE059A002AB8D04B4625
:10165000009706A92846FFF725FF059B9844EBE76E
:1016600086EB000047F1000073B542F20F738B4226
:1016700028BF0B4605680F4A0446052168460AF054
:10168000A8F863680C495B6806460B2228460AF0F6
:1016900004FE63683246694628465B680AF0FDFD31
:1016A000636806495B681B2228460AF0F6FD02B013
:1016B00070BD00BFD2F70000A7EB000088EB000070
:1016C000084A10B50123084C13600021A04204D839
:1016D00001B11360054B186010BD40085B0001218B
:1016E000F4E700BFD408002040420F00D0080020DB
:1016F000F8B5074F0D4604464618B44201D12846B6
:10170000F8BD386814F8011B83685B689847F4E7F4
:10171000EC080020014B024A1A607047EC080020D8
:1017200028E5000001480AF022BF00BF9CE8000045
:101730000148FFF799BF00BF9CE8000010B50846BC
:101740000C460AF00DFD214604480F22FFF716FF54
:101750002046BDE810400AF030BD00BF9CE8000004
:10176000014B01221A707047A9150020024B034853
:1017700001221A700AF0FBBEAA150020C8E800007A
:101780000148FFF771BF00BFC8E8000010B5084668
:101790000C460AF0E5FC214604480F22FFF7EEFE56
:1017A0002046BDE810400AF008BD00BFC8E80000B0
:1017B000054B1B781BB141F288300CF0CEBCA42045
:1017C000002109F0CBBA00BFAA1500202DE9F84F7F
:1017D000DFF89880DFF8989007460E460424C34649
:1017E00098F80050DDB94FF0FF334FF0FF32484614
:1017F00008F00CFD32463946284608F0E3F98246E7
:10180000484608F081FD184DBAF1000F1FD00123A2
:101810002B709BF800306BB93046BDE8F88F32462C
:101820003946002008F0CEF98246ECE75CB92C700E
:101830004FF0FF34002008F011FA0028ECD02B788C
:10184000002BF3D1E8E7013CFFF7B2FFF2E72B787A
:1018500013B1013C04D12C702B78002BC0D1DBE7F5
:10186000FFF7A6FFF8E700BFA9150020AA15002082
:1018700094030020F8B506464FF02003EFF31185DE
:1018800083F31288BFF36F8F094B1C685CB1094F5B
:10189000D4E90132002E08BF13460BB138789847BF
:1018A0002468002CF4D185F31188BFF36F8FF8BD45
:1018B000040900200C0900201FB50F4B1A68BAB9A3
:1018C00001221A600D4A07CA01AB83E807000C4ADF
:1018D0004AB193E807000AF0F9FE002005B05DF870
:1018E00004EBFFF7C7BF82F31188BFF36F8FF4E7F4
:1018F00005B05DF804FB00BF200100200C090020AA
:10190000CDC6000070B588B06D4601460646284633
:101910000AF055FE95E80700174C84E80700207888
:1019200038B3164B00211960731C0DD014484FF4C6
:1019300000430021E3FB0201124A0023FEF7D0FB23
:101940000121301A0CF0E9FB08F08CFF0120FFF7B1
:1019500091FF94E8070005AB83E807000A4A1AB133
:1019600093E807000AF09FFEFFF7A6FF09F042F98F
:10197000207808B070BD00BF0C09002020010020B5
:101980003F420F0040420F00A7C60000014910224D
:101990000A60704710ED00E072B6404080F3118895
:1019A000BFF36F8FBFF34F8F30BF62B6BFF36F8F40
:1019B000704700BF72B6494081F3118820BF80F3A1
:1019C000118862B6704700BF73B506460C46002901
:1019D00038D001224FF0000362F307031D4D1E4A69
:1019E0001E48AD1AC5F3C90565F38F13ADF8003075
:1019F000D1E9012309680AF038FB01224FF0000306
:101A000062F3070365F38F13ADF80030D4E90423C4
:101A1000E16813480AF029FB01234FF0000263F349
:101A2000070265F38F12E1690E480AF0F2FA4FF0EF
:101A30000002012363F3070265F38F12A1690A48CC
:101A40000AF0E7FA2146304602B0BDE8704008F0DF
:101A500077B900BF70E70000A8E600002FEC000097
:101A60005EEC00008DEC00009CEC000043B2002B0B
:101A700008DB012200F01F0002FA00F05B09024AB5
:101A800042F82300704700BF00E100E043B2002BA2
:101A90000DDB01225B0900F01F0002FA00F0203389
:101AA000034A42F82300BFF34F8FBFF36F8F704795
:101AB00000E100E04209054B00F01F0053F822202E
:101AC000012303FA00F01040704700BF00E100E07E
:101AD00043B2002BA8BF03F1604301F101014FEABB
:101AE0004111AEBF03F5614300F00F00034BC9B2D3
:101AF000ACBF83F800131954704700BF14ED00E029
:101B000008B572B6044B986918B100229A610CF0BE
:101B100045F862B608BD00BF5415002030BFFFF77E
:101B2000FDBF00BF0F4A08B50F4B22F07F029A603D
:101B3000BFF34F8FBFF36F8FD3F8882022F470026A
:101B4000C3F88820EFF3148323F0040383F314888D
:101B5000BFF36F8F08F0A8F909F094F900F0B8FB13
:101B600008F0ACF90000000000ED00E0094A0A4965
:101B700093680968D967094998674B6843F08053AF
:101B80004B60002383F31188BFF36F8F9368D86F86
:101B9000704700BF5415002064EA000000ED00E02B
:101BA00012498A684FF030001044EFF3098C80E846
:101BB000F01F202080F31288BFF36F8F0C4F4FF07F
:101BC0000066CA698A603E60906F0023936780F365
:101BD000118804B5104600F0BDFBBDE8044002F1D9
:101BE000300090E8F01F8CF30988704754150020EE
:101BF00004ED00E01EF0040F0CBFEFF30880EFF3DC
:101C00000980816911F8021C0229FFD001B50AF090
:101C1000DBFC01BD42F8203C009B42F81C3C0A4919
:101C2000019B42F8183C029B42F8143C21F0010150
:101C30004FF0807342F8043C42F8081C0023203A1D
:101C400002658367704700BF43B900000B4B024633
:101C5000986890B112F1160F806E05D0A0F12003A4
:101C6000934206D8824204D281422CBF0021012136
:101C700000E00021002908BF002070475415002013
:101C800008B5094B98600D46144600F063FB2046EA
:101C900085F30988002163B681F31188BFF36F8F44
:101CA0000022002309F04DFE5415002001B572B644
:101CB0000B4A906900281EBF002191610BF06EFF56
:101CC00062B6EFF30580A0F110004FEAC0000549AD
:101CD000014409C99847BDE801400349084700008D
:101CE0005415002070E50000ED1C0000044B9968BD
:101CF000D869884203D003494FF080520A60704788
:101D00005415002004ED00E02DE9F8430123894635
:101D10004FF0000163F30701444C454BE41AC4F350
:101D2000C904804664F38F11424817460AF064F9EB
:101D3000414B9B6AD80609D54FF00001012363F39C
:101D4000070164F38F113D480AF056F93A4B9B6A3C
:101D5000190709D54FF00001012363F3070164F36C
:101D60008F1137480AF048F9334DAB6A9A072ED4E1
:101D70006FF01506304B9B6ADD0709D54FF0000167
:101D8000012363F3070164F38F112E480AF034F93D
:101D9000294B9B6A980609D54FF00001012363F394
:101DA000070164F38F1128480AF026F9224B9A6A3A
:101DB000D1062DD49A6A92072AD400201E4A936A2B
:101DC00043F0FF03936200233B70BDE8F8830123D7
:101DD0004FF0000163F3070164F38F111B480AF011
:101DE0000BF96E6BAB6A1B06C2D54FF000020123E4
:101DF00063F3070264F38F12314615480AF009F9BC
:101E0000B9F1000FB6D0AB6A23F08003AB62B1E743
:101E10005B681B05D1D541463046FFF717FF002808
:101E2000CBD080F309880220C8E700BF70E700002C
:101E3000A8E6000052ED000000ED00E068ED0000B3
:101E40009BED0000DCED0000FBED0000AEED0000BE
:101E5000C6ED000001234FF0000110B563F3070148
:101E6000334C344B3448E41AC4F3C90464F38F117F
:101E70000AF0C2F8314B9B6A9A0109D54FF0000174
:101E8000012363F3070164F38F112D480AF0B4F8BE
:101E90002A4B9B6ADB0109D54FF00001012363F354
:101EA000070164F38F1127480AF0A6F8234B9B6AB9
:101EB000180309D54FF00001012363F3070164F310
:101EC0008F1121480AF098F81C4B9B6A590309D5D9
:101ED0004FF00001012363F3070164F38F111B48E6
:101EE0000AF08AF8154B9B6A9A0309D54FF0000156
:101EF000012363F3070164F38F1115480AF07CF89E
:101F00000E4B9B6ADB0309D54FF00001012363F3FD
:101F1000070164F38F110F480AF06EF8074A936ABD
:101F20006FEA03436FEA13439362002010BD00BFC2
:101F300070E70000A8E600002AEE000000ED00E0D7
:101F400042EE000055EE00006FEE00008DEE000046
:101F5000B2EE0000CCEE0000F8B501230E464FF0C3
:101F6000000163F307013C4C3C4BE41AC4F3C90481
:101F700064F38F1107463A480AF03EF8394B9B6AE2
:101F8000D90409D54FF00001012363F3070164F37D
:101F90008F1135480AF030F8324B9B6A1A0509D583
:101FA0004FF00001012363F3070164F38F112F4801
:101FB0000AF022F82B4DAB6A9B051CD501234FF08C
:101FC000000163F3070164F38F1129480AF014F844
:101FD000A96BAB6A18040ED54FF00002012363F31E
:101FE000070264F38F1223480AF013F81FB1AB6A9B
:101FF00023F40043AB621B4B9B6A590509D54FF094
:102000000001012363F3070164F38F111A4809F0FB
:10201000F3FF144B9A6AD20511D54FF0000101234A
:1020200063F30701154864F38F1109F0E5FF0D4ACA
:10203000936A002043F47F4393623070F8BD9B6A3B
:102040009B04F4D54FF00001012363F3070164F30F
:102050008F110B48E9E700BF70E70000A8E6000019
:10206000CAEC000000ED00E0E0EC00009BED000099
:10207000F1EC00000AED00001FED00003AED000059
:10208000FBED00002DE9F041794B5F688AB0C7F3A2
:102090000804002585F31188BFF36F8F02F07F439A
:1020A000B3F17F4F11D102F00C03082B0FD10123A4
:1020B0004FF0000163F307016E4A6F4B6F489B1AA4
:1020C000DB0863F38F1109F097FF2E4604E0120737
:1020D0004EBF0E460646012500238DF80730E31E4D
:1020E000092B00F2A880DFE803F00591958EA6A6E3
:1020F000A6A6A69901234FF0000163F307015E4FE6
:102100005C4B5F48FF1AC7F3C90767F38F1109F0EB
:1021100073FF574AD46A4FF0000814F002048DF898
:1021200007800AD04FF00001012363F307015548EF
:1021300067F38F1109F060FF29E0D36A002B23DADF
:102140004FF00001012363F3070167F38F114E483D
:1021500009F052FF9DF807309BB92022314602A8B2
:102160000AF08AFA099B002D7CD0C3F3080222B939
:102170006FEA53236FEA4323099302A92046FFF72E
:1021800023FC0AB0BDE8F081D36A5B0001D40024CF
:10219000E0E701234FF0000163F3070167F38F11BC
:1021A0003A4809F029FFB36933F8022C4DF602735F
:1021B0009A420DD003F1604303F626631B78A3B166
:1021C0000DF1070201213046FFF79EFD0446C1E7ED
:1021D00001234FF0000263F3070267F38F123168A7
:1021E0002B4809F016FF3468B4E72A4B1B782BB153
:1021F0000DF107010120FFF7AFFEE7E7264B1B8833
:102200009BB2002BC3D0FFF725FEDFE70DF10702DD
:102210000021D8E70DF107010020ECE701234FF082
:10222000000163F30701134A134B1C489B1ADB0898
:1022300063F38F117EE701224FF0000362F307037F
:102240000D490C4A1648891AC90817F4F87F61F33A
:102250008F13A4F11002134918BF0146124809F068
:10226000ECFE94E723F4FF7323F0010384E700BF3F
:1022700000ED00E0A8E6000070E70000F7EE0000C7
:1022800022EF000039EF00005AEF000068EF000075
:1022900087EF000029ED00E02AED00E0A3EF000049
:1022A000DCEF0000C7EF0000F5EF0000024A5369C1
:1022B00043F010035361704700ED00E0EFF3088036
:1022C000EFF3098101B57246FFF7DCFE01BD00BFE7
:1022D000044800232021C2180133272B82F8001361
:1022E000F9D1704700E100E00CF0CCF8202080F339
:1022F000118808484FF40261401880F30988EFF311
:1023000014800221084380F31488BFF36F8FFFF716
:1023100009FC0000202D0020064B9B68834207D15A
:10232000EFF3058323B1044A536843F080535360AD
:1023300008F044BD5415002000ED00E0024B034AB4
:102340000348012100F08CB80000012000000020AB
:10235000D8E80000826E054B203A1A60044A20211A
:10236000C3E901121846012100F084B818090020C1
:1023700000000B15F8B52C4F00268E4219DA446880
:10238000002C4ED0EBB104F1FF3C14EA0C0F12D03C
:1023900001234FF0000263F307022449244B254830
:1023A0005B1ADB0863F38F12314609F032FE6FF0DF
:1023B00015021046F8BD1F2CEAD905681CEA050F66
:1023C000E6D1202CD5B2D0F808C002681AD9B4F1F1
:1023D000004F19D8013CB4FA84F4C4F11F0464001E
:1023E000072D4CEA040411D901234FF0000263F3D6
:1023F00007020E490E4B10485B1ADB0863F38F127D
:102400002946D2E70824EBE73E24E9E722F01F0241
:102410002A4342F0100244F00104BD60FA603C61BE
:102420006A1C01360C30A8E790ED00E0A8E6000039
:1024300060E700000CF000002FF00000034B0522C5
:102440005A60BFF34F8FBFF36F8F704790ED00E07E
:10245000BFF35F8F014B00225A60704790ED00E0A0
:1024600010B5034C01232278FFF784FF207010BDC4
:10247000AB15002008B5084A00231278FFF77AFF51
:1024800010F1160F03D0054B0022072800DD08BD10
:1024900098601A610130F8E7AB15002090ED00E07C
:1024A00013490868082810B51ED8FFF7D1FF114C52
:1024B00049680022904201F10C0105D10E4B1870C1
:1024C000FFF7BCFF002010BDA26051F80C3C23F0C8
:1024D0001F03134343F01003E36051F8043C43F03F
:1024E000010323610132E5E74FF0FF30EBE700BF66
:1024F000E4E8000090ED00E0AB150020014B18600F
:10250000704700BF240100204FF02003EFF3118239
:1025100083F31288BFF36F8F06490123C1F840355A
:102520004FF08041C1F8783582F31188BFF36F8F87
:102530000020704700E0014020B1034B800143F0D0
:1025400001031847704700BF30E8000040290E4BD8
:1025500070B528BF40210D4C46181D46B04203F10E
:10256000020304D1002305F81130074870BD02783A
:102570001209A25C03F8022C10F8012B02F00F02E2
:10258000A25C03F8012CE9E7AC150020ADF00000D7
:1025900030B503788BB0044607AD032B21D8DFE8B4
:1025A00003F0021A1C1E124928460AF01CF8637830
:1025B0000493A3780393E3780293237901936379D7
:1025C00000930595A3790B4A0B481E2109F001F9E8
:1025D00009480BB030BD0949E6E70949E4E7094974
:1025E000E2E7094A0A21284609F0F3F8DFE700BFCD
:1025F00068F000008AF000002D1600206FF0000047
:1026000076F0000080F0000059F2000038B5054671
:1026100005480BF01BF8044620B1002108300BF0F0
:1026200034F82575204638BD400400200C4BD3F803
:10263000F83010B533B902460B460120BDE8104012
:10264000FFF7E4BF18460BF031F8012300210375B2
:102650008181044608300BF018F8204610BD00BFF9
:10266000000000200E38012870B505D81046194624
:10267000BDE87040FFF7DABF61B109480AF0E6FF34
:10268000044628B1002108300AF0FFFF012323751A
:10269000204670BD0120BDE87040FFF7B7BF00BF06
:1026A000F003002070B50B4D06460FCD8EB001AC87
:1026B0000FC40FCD0FC40FCD0FC40C2E2B68236099
:1026C0009BBF0EAB03EB8606034856F8340C0EB0E6
:1026D00070BD00BFF4E700000CF6000008B5012152
:1026E00008300BF00AF801234FF0000263F30702F1
:1026F0000549064B5B1ADB0863F38F120178044827
:10270000BDE8084009F085BCA8E6000038E70000F5
:10271000A3F3000010B502234FF000040A4A818998
:10272000806863F30704094B9B1ADB0863F38F147B
:10273000FFF70CFFFEF7B8FB22460146BDE810404C
:10274000034809F066BC00BFA8E6000038E70000B7
:10275000F9F4000073B502EBC30304460846934244
:102760001BD102234FF000051C4A8689806863F361
:1027700007051B4B9B1ADB08314663F38F15FFF7E8
:10278000E5FEFEF791FBADF80050034632462146C8
:10279000144809F06AFC02B070BD154612F8081B17
:1027A000A142DCD181896B788B4211D901224FF093
:1027B000000362F307030948094A121AD2080A48BB
:1027C00062F38F13224602B0BDE8704009F035BCB9
:1027D0006B6802B0BDE87040184700BFA8E6000073
:1027E00038E70000E7F20000C5F2000010B5012153
:1027F000044608300AF081FF21460023024A00788F
:10280000BDE81040FFF7A6BF24E900002DE9F04322
:10281000074685B09079DFF844810E46144605F0EE
:10282000F3FD80451AD002234FF0000563F307053E
:10283000454A464BA0790097D21AD20862F38F1509
:10284000019005F0E1FD2B46CDE90208042269461E
:102850003F4809F025FC05B0BDE8F083204605F0AF
:10286000DBFDDFF8FC904FF00C0808FB00904D46B4
:102870004388BB4216D002234FF0000563F30705DF
:10288000314A324BD21AD208204662F38F1505F036
:10289000C3FD08FB00902B4642882E48394609F0BC
:1028A000CCFBD8E72C4FD7F8F80020B105F068FE34
:1028B0000023C7F8F830204605F0AEFD0C2707FBD3
:1028C00000504368E3B1DEB9204605F0A5FD07FBE3
:1028D000005001224068D0E90031007A01F01F0762
:1028E000BA40490918B3BFF35B8F03EB810353E888
:1028F000001F114343E800100028F8D1BFF35B8F9D
:10290000204605F089FD0C2707FB00508368002B4B
:10291000A1D0204605F080FD78432E54204605F0D6
:102920007BFD07FB0050806807F06AFD93E7D24308
:1029300003EB8103BFF35B8F53E8001F114043E8B3
:1029400000100028DAD0F7E738E70000A8E600001A
:1029500009F300003EF300000000002018040020EE
:102960002409002038B50421044608300AF0C5FEC9
:102970004578017840882246FFF748FF25B1034893
:10298000BDE8384007F03CBD38BD00BFE000002086
:1029900038B50321044608300AF0AFFEA368057875
:1029A0001978B0F801002246FFF730FF25B103483F
:1029B000BDE8384007F024BD38BD00BFE00000206E
:1029C00010B5C1E900239DF808300B720C4605F0E4
:1029D00023FD034A0C2303FB0020446010BD00BF0D
:1029E000240900202DE9F84F4FF0FF324FF0FF335C
:1029F00082461648164F89460AF028FE044600F122
:102A000008080021002640460AF03FFE26752046B1
:102A100005F002FD0C2505FB0070A0F802A0204681
:102A200005F0FAFC05FB00708660204605F0F4FC1A
:102A300005FB00700321466040460AF047FE80F81F
:102A40000290A0F800A02046BDE8F88F18040020EE
:102A5000240900202DE9F041074686B014460D46B2
:102A600021B9FFF7BFFF0546002859D001220021F8
:102A700068460BF05BF9284605F0CEFC2A4E0C2385
:102A800003FB0060C0F808D028460AF00FFE01469C
:102A900026480AF0FEFD4FF4A0220023684607F006
:102AA000D5FC804680B14FF49973214A21492248D0
:102AB00008F082FE4146214808F07EFE404080F347
:102AC00011884FF0030002DF284605F0A5FC0C2317
:102AD0005843365CDEB102224FF0000362F3070375
:102AE0001749184A1848521AD20862F38F13394608
:102AF000324609F0A2FA284605F042FD092E0CBF25
:102B00006FF06E006FF0040006B0BDE8F08114B104
:102B100025603046F8E7284605F032FD2046F3E709
:102B20006FF06800F0E700BF24090020FC000020DF
:102B3000D1F10000FEF1000007F2000024F20000D5
:102B4000A8E6000038E7000044F20000F0B5C34DED
:102B5000D5F81431996811F0010187B021D101AA8B
:102B600040F60340FFF776FF0446002877D1019B2B
:102B70009B681B7893B9BFF35B8F2B4653F8CC2F20
:102B8000BFF35B8F02F00502BFF35B8F53E8001FBA
:102B900043E800200028F9D1BFF35B8F019805F0CE
:102BA000EFFC01AA002141F20300FFF753FF0446A6
:102BB000002854D1019BAA4899680822013109F0E4
:102BC0005BFD019805F0DCFC214601AA41F2010001
:102BD000FFF740FF0446002841D1019883685A78E6
:102BE00085F86820D9789A7842EA0122A5F86A2007
:102BF0001A7985F86920197ADA7942EA0122A5F86A
:102C00006C205A799B7942EA0323A5F86E3005F0CF
:102C1000B7FC214601AA41F20200FFF71BFF044660
:102C2000E8B9019B8F4899684022013109F024FDE1
:102C3000019805F0A5FC95F87430580612D40123CC
:102C40004FF0000163F30701874A884B88489B1ABD
:102C5000DB0863F38F1109F0CFF96FF012042046FF
:102C600007B0F0BD214601AA42F20300FFF7F2FED1
:102C700004460028F3D1019B7E489968082201315F
:102C800009F0FAFC019805F07BFC95F87430990680
:102C900059D595F894301A0770D4082142F20100F2
:102CA000FFF7A0FE0446002854D0082108440AF08B
:102CB0000DFD02270022077042708270C2700271FF
:102CC00042718271C271214642F20100FFF7C2FED9
:102CD00004460028C3D1082140F60140FFF782FED8
:102CE0000646B8B3082108440AF0F0FC802343707C
:102CF000202304708470047144718471C770C3719F
:102D00002246314640F60140FFF7A4FE0446002863
:102D1000A5D101466A464FF60140FFF79BFE534C92
:102D2000514BE41AC4F3C90400283BD04FF0000112
:102D300067F30701504864F38F1109F05DF900F063
:102D4000E5FD04468BE7022140F66D40FFF74AFEA1
:102D5000064610B96FF0680481E7022108300AF0D6
:102D6000B5FC0123447003702246314640F66D40A5
:102D7000FFF770FE044600288BD070E701AA0021FF
:102D800042F21C00FFF766FE044600287FF467AF9E
:102D90000198836853F8012F5B68C5E9362305F075
:102DA000EFFB7AE7009B35489E6803224FF0000353
:102DB00062F30703B6F80120032A96BF3049314970
:102DC00051F8221064F38F1309F037F9B6F80110A7
:102DD00003224FF0000362F30703022964F38F1309
:102DE000B6F8032038D1032A36D8274951F82210E3
:102DF000264809F022F903224FF0000362F307038B
:102E000072792348032A96BF22491E4951F822109D
:102E1000CDE90112B2790392B6F807200492D6F8F0
:102E20000920059264F38F13052201A909F038F9EE
:102E3000009805F0A5FB6A4600214FF60240FFF717
:102E400009FE064650B34FF00001022363F3070169
:102E500064F38F11104870E70A49C9E700000020A9
:102E60007000002078000020A8E6000038E700008D
:102E7000C5F30000D0000020E9F300000DF40000CD
:102E80005CE900000CF6000034E9000026F40000C4
:102E90003EF400007CE900006BF40000009B144845
:102EA00099680222013109F0E7FB009805F068FB00
:102EB00095F8B9305B077FF542AF6A4631464FF669
:102EC0000340FFF7C7FD40B14FF00001022363F359
:102ED000070164F38F1107482FE7009B06489968A4
:102EE0000122114409F0C8FB009805F049FB26E7D0
:102EF000B900002094F40000B8000020024BD3F881
:102F000014311B69184700BF000000202DE9F84F5D
:102F1000504C514B514D524FE41AC4F3C90405F1C2
:102F2000E00BFB686FF35233FB604FF0FF324FF062
:102F3000FF3301214A4808F0C7F960B140F6891310
:102F4000484A4949494808F037FC404080F3118815
:102F50004FF0030002DFF968C1F3453101290DD9B3
:102F600004290ED02AF03F0343F0020363F3070A5B
:102F700064F38F1A52463E4809F04BF807F062FEA0
:102F8000CFE73B7B002BF9D10022002339480AF020
:102F900062FB064600284ED04FF0FF334FF0FF3261
:102FA000584607F053FAD5F8F83083BB30460AF09C
:102FB0007DFBC5F8F8003046FFF7A0FF014600286A
:102FC000DCD029F03F0343F0010363F3070964F306
:102FD0008F194A46284809F01CF8284807F010FACB
:102FE000304605F019FA264A0C2303FB00201F2166
:102FF00032464088FFF70AFCD5F8F80005F0C0FA21
:1030000000233046C5F8F83005F0BAFAB6E728F0E4
:103010003F0343F0010363F3070864F38F1841464D
:10302000184808F0E9FFD5F8F80005F0A9FA0023E0
:10303000C5F8F830BAE74FF412630A4A12490B4850
:1030400008F0BAFB404080F311884FF0030002DF24
:10305000A2E700BF38E70000A8E60000000000205B
:1030600028010020D1F10000FEF1000007F200006D
:10307000BDF40000FC000020AFF10000E0000020E3
:1030800024090020DEF40000C8F000002DE9F04122
:10309000044600F1080528460AF037FBA789012FEE
:1030A00006460CD840F61553204A2149214808F01D
:1030B00083FB404080F311884FF0030002DF0221C0
:1030C00028460AF01AFB0378052B804624D025D326
:1030D0000E3B012B8CBF02250125EA070CD440F6DC
:1030E0001953124A1449134808F066FB404080F314
:1030F00011884FF0030002DF0223104A98F8000005
:103100002146FFF727FBAB070AD52369A78113FAEE
:1031100086F6A660BDE8F0810325DEE70225DCE740
:103120002046BDE8F04105F02BBA00BFD1F1000008
:1031300071F3000007F200008AF300006CE9000060
:1031400038B5017D012904463CD18389012B0CD877
:1031500040F60D13254A2649264808F02DFB40402D
:1031600080F311884FF0030002DF022104F1080010
:103170000AF0C3FA0378052B05461FD020D30E3B77
:10318000012B8CBF022301239B070CD440F61113A3
:10319000164A1949174808F00FFB404080F3118880
:1031A0004FF0030002DF0323144A28782146FFF77B
:1031B000D1FA204605F0E4F9002038BD0323E3E707
:1031C0000223E1E701234FF0000263F307020C48FA
:1031D0000C4B1B1ADB0863F38F120B4808F019FF26
:1031E000204605F0CDF96FF01500E6E7D1F10000BB
:1031F00071F3000007F2000060F2000044E90000F3
:10320000A8E6000038E700008EF2000010B5037D4C
:10321000012B04460CD040F65C53084A0849094883
:1032200008F0CAFA404080F311884FF0030002DF33
:103230002046FFF72BFF002010BD00BFD1F100009A
:10324000A2F2000007F20000084AD2F814313BB99C
:10325000C16841B1016931B1C2F814011846704723
:103260006FF0770070476FF0150070470000002086
:103270002DE9F0433E4CBFF35B8F87B004F1CC03E4
:1032800053E8002F42F0020243E800210029F7D161
:10329000BFF35B8F03234FF0000763F30707354D40
:1032A000354B3649364EDFF8E890ED1AE379204683
:1032B000012B88BF0E46FFF76BF9FDF7F5FDC5F34F
:1032C000C90565F38F173B46024631462D4808F085
:1032D000B4FE27460126E3799E4207F1070731DB5A
:1032E00094F86870032338464FF0000663F307062E
:1032F000FFF7D8F9B4F86A30049365F38F16B4F881
:103300006E30059302A9CDE90207334604221E4818
:1033100008F0C6FE4FF00006032363F3070665F3CB
:103320008F1694F869502846FFF7BCF9ADF8006095
:103330000146B4F86C3015482A4608F096FE07B0EE
:10334000BDE8F08328F03F0343F00303384663F3FE
:103350000708FFF71DF9FDF7A7FD65F38F18024673
:1033600031464346484608F068FE0136B3E700BFE1
:103370000000002038E70000A8E6000026F1000069
:10338000A6EB00002AF100004AF1000088F10000DD
:1033900039F1000010B5FFF7D9FB044608B9FFF773
:1033A00067FF044B1B681BB12046BDE8104018475F
:1033B00010BD00BF3C090020F0B53B4DD5F81431DD
:1033C00089B0064693B901234FF0000163F307016A
:1033D000364A374B37489B1ADB0863F38F1108F0E6
:1033E0000BFE6FF01204204609B0F0BD05F1CC03CE
:1033F000BFF35B8F53E8004F44F0010243E8002124
:103400000029F7D1BFF35B8F14F0010448D10223E8
:103410004FF0000263F307022449254B26485B1A4C
:10342000C3F3C90767F38F126FF00B0108F0F1FDCA
:10343000224B1E6000220023CDE906236FF0080313
:10344000CDE902430494CDE900441D4B1D491E48BB
:103450004FF4207206F03AFE1C491B480AF097FB15
:10346000D5F81431DB689847044658B101234FF072
:10347000000263F30702014667F38F12144808F055
:10348000C8FDB0E73EB9FFF761FB04460028AAD1AA
:10349000FFF7EEFEA7E705F1BC0007F0E5F8A2E7AD
:1034A0006FF077049FE700BF00000020A8E600004F
:1034B00038E70000CCF00000E5F000003C090020F7
:1034C0000D2F0000001F00202005002004F1000047
:1034D0000AF1000000487047FFEA0000F8B50B4E03
:1034E00007460025F379ECB2A34202D86FF001043D
:1034F00009E0C4EBC40107223144384609F0ACF8B6
:1035000001350028EED12046F8BD00BF00000020A4
:1035100038B506221349054609F09EF80446E0B185
:10352000062142F20500FFF75DFA0446B8B1062213
:10353000294608300AF0D0F82146002242F2050060
:10354000FFF788FA044640B906222946054809F0E3
:1035500093F8054B012283F86020204638BD6FF0B8
:103560006804FAE761000020000000207FB50446EF
:103570000E46A1B100250722694630460095CDF8D8
:10358000035009F069F850B11248C4EBC404072293
:103590003146204409F070F8284604B070BD02A8F6
:1035A00009F0D3F805460028F6D102A8FFF796FFE8
:1035B0000028F4DA0748C4EBC4040444072202A933
:1035C000204609F059F8002EE6D007222146304661
:1035D000E0E700BF000000207FB50C46054620B99B
:1035E00064B36FF0150004B070BD00230722694674
:1035F0000093CDF8033009F02FF80028F0D02B7895
:10360000012B04D1AB7903F0C003C02B0ED00123F2
:103610004FF0000163F307011B4A1C4B1C489B1A27
:10362000DB0863F38F1108F0E7FCDAE72846FFF7C1
:1036300055FF0028D4DB6FF07700D4E7154EF379FF
:10364000012B1DD0214606F1CC0009F0C3F850B182
:10365000F4792946631C2046F371FFF787FF0028A1
:1036600008BF2046BFE7002DBBD0072202A928468D
:103670000294CDF80B4008F0EFFF0028E8D1B0E746
:103680006FF00B00AFE700BFA8E6000040E70000C6
:1036900014F600000000002070B586B0064601AAAE
:1036A000002141F20900FFF7D5F9054680B1022358
:1036B0004FF0000163F30701194A1A4B1A489B1A8D
:1036C000DB0863F38F1108F097FC002006B070BD93
:1036D000019B02909C68ADF80C000134062202A9FF
:1036E000204608F0B9FF18B9019804F049FFECE74B
:1036F0004FF0FF33062204A920460493ADF814309E
:1037000008F0AAFF0028EFD006222146701C08F01E
:10371000B3FF0198357004F033FF0120D6E700BFF6
:10372000A8E6000040E700007EF6000007B5684606
:10373000FFF7B2FF044BD87118B169460020FFF7BC
:1037400015FF03B05DF804FB000000202DE9F341F4
:103750002B4B93F8BA3013F0010407460E460ED1F6
:1037600002234FF0000163F30701264A264B274846
:103770009B1ADB0863F38F1108F03EFC16E001AAE8
:1037800000214FF60940FFF765F9054690B1022385
:103790004FF0000163F307011A4A1B4B1C489B1AA8
:1037A000DB0863F38F1108F027FC0024204602B0E9
:1037B000BDE8F081019B99684C78B44228BF34463B
:1037C0004FF016088E1CA54211DB019804F0D8FEBC
:1037D000002CEBD102234FF0000163F30701094AEB
:1037E000094B0C489B1ADB0863F38F11C4E708FBF5
:1037F00005701622314608F03FFF0135E3E700BFB0
:1038000000000020A8E6000040E700009CF6000051
:10381000C8F60000E8F60000F0B5144DEC7989B068
:103820002CB9012102A8FFF791FFE871B8B9002176
:103830000846FFF7D1FE10E002AB07FB0631062277
:103840000DF1010008F018FF0123694630468DF89C
:103850000030FFF78BFE013410B109B0F0BD162720
:10386000EB79E6B2B342E7D80020F6E7000000208B
:103870002DE9F8431E4611F001030D4691460478E8
:1038800026D0214F2AB18B0603D597F8D0305806A1
:1038900036D54FEAC408A8EB0403FB5C012B08D023
:1038A000A8EB04043B5DB9F1000F0CD1337000208C
:1038B00007E0072010FB04303844FFF729FE0028FA
:1038C000EED0BDE8F883A90648BF43F00203EDE758
:1038D0004A0711D5E7000C4D3A1BAA5C012A09D111
:1038E000072010FB04202844FFF712FE3C1B2B5D31
:1038F0003370E6E71846F9E708F075FF0123F7E7AC
:103900006FF08500DDE700BF0000002038B51A4DDC
:10391000EB7913B10024204638BDFFF707FF0446BA
:1039200070B101234FF0000163F30701134A144BF8
:1039300014489B1ADB0863F38F1108F05DFBEAE77C
:10394000EB79002BE6D1FFF767FF04460028E8D1AA
:10395000681CFFF7DDFD04460028DCD001234FF092
:10396000000163F30701054A054B07489B1ADB0872
:1039700063F38F11E1E700BF00000020A8E600001C
:1039800040E7000042F6000061F60000436837B5EA
:103990000446580502D5002003B030BD22690AB1A3
:1039A000D907F8D51A4D2078EB798342F3D9C0EBCB
:1039B000C00000230722694628440093CDF8033055
:1039C00008F04AFE0028E6D06068C20706D495F8E1
:1039D0006830082B02D8A3689F2BDCD910F0300F79
:1039E00002D02369002BD6D0C30601D4236943B982
:1039F000D4E902239A42CED81F2ACCD9B3F5804FFE
:103A0000C9D800F46030B0F5603018BF0120C3E7BA
:103A1000000000202DE9F74F0C4620218346154673
:103A2000FEF7E0FF074600285DD02021083009F0AE
:103A30004DFE00212022824608F029FE04EBC5033A
:103A40000AF101090093002125680023626893426E
:103A50000DD3009B08349C42F6D18AF80010002256
:103A60003946584603B0BDE8F04FFEF7F3BF6A7819
:103A700028788E1C06EB020CBCF11F0F1CD90928FC
:103A8000C1F11D0201D1002A15DC01234FF0000114
:103A9000164A174863F30701164B9B1ADB0863F3BA
:103AA0008F1108F0A9FA384604F06AFD6FF015008E
:103AB00003B0BDE8F08F08205FFA82F808F1010C2E
:103AC00009F801C00131C9B2F6B209F8010009EBE9
:103AD00006006968019308F0CFFD019B4644F1B2EE
:103AE00001330835B2E76FF06800E1E7A8E60000AF
:103AF00051F70000A8E600002DE9F04F0D698DB0E8
:103B000015F1000907460C467F4805924FF0010168
:103B100018BF4FF001099B4608F088FE002800F00E
:103B2000EA802046FFF732FF28B96FF0150A5046A9
:103B30000DB0BDE8F08F204608F067FE80460028F3
:103B4000F3D007F110060621304608F06FFE8246DA
:103B5000002840F0D38001460F2208A808F097FD06
:103B6000A268ADF820206068E268ADF8222008F075
:103B70004EFE3A7823788DF82D009A428DF82EA0CB
:103B800004D06FF48051604808F059FE5F4A2378F2
:103B90003B7082F8673061680DF125034A4638466C
:103BA000FFF766FE82460028C1D107F10900002D0B
:103BB00049D02169072208F05FFD204608F0DCFEAD
:103BC0006368DA07814647D5002D42D013F0100F05
:103BD00014BF04230123072221698DF824300DF13D
:103BE000260008F049FD4FF000080F2142F20600C0
:103BF000FEF7F8FE8246002800F083800F2208A915
:103C0000083009F069FD5146002242F20600FEF735
:103C100021FF824600288AD17DB30121384608F071
:103C2000BBFE8246002836D001224FF0000162F32D
:103C300007013748374A121AD20862F38F11364803
:103C400008F0DAF973E706950722CDF81B5006A9AC
:103C5000B1E78DF82450C8E7980504D4169B13B932
:103C6000B9F1020F03D102238DF82430BDE70323FD
:103C70008DF82430DDF85880B7E7179B0093CDE925
:103C80000189169B05995A46384608F0FEFD824682
:103C90000028C2D04BE765BB626882F00202C2F323
:103CA000400230460D2108F0D9FD09F1FF335A4298
:103CB0005A413046072108F0D1FDA9F102014A42DC
:103CC0004A413046082108F0C9FD6268304602F0DA
:103CD0000102092108F0C2FD424630460A2108F0DF
:103CE000BDFD62680C21C2F38002304608F0B6FDCB
:103CF0001DE70246D5E76FF00A0A18E76FF0770A6A
:103D000015E76FF0680A12E7CC00002000000020E1
:103D1000A8E60000A8E6000036F7000073B51546D7
:103D2000069A0C46CDE900322B460A460146114858
:103D3000FFF7E2FE21460646002340F201109D42B5
:103D400002D1304602B070BD0A88824204D14A686E
:103D500012B11278D20702D401330831EFE70649D5
:103D600006480AF081F84FF470220023034806F059
:103D700019FDE6E718000020B53D000030000020E6
:103D800008B50A4808F02DFE6FF40051084808F005
:103D900056FD0621064808F049FD28B100210348D8
:103DA000BDE8084008F0F8BD08BD00BF18000020BD
:103DB0002800002008B5FFF7E3FF02234FF00002C0
:103DC00063F307020549064B5B1ADB0863F38F12A6
:103DD0000146BDE80840034808F01BB9A8E600000A
:103DE000A8E6000017F700002DE9F047114FDFF8B3
:103DF00048900426013EF6B2FF2E19D033B24FEAA6
:103E0000830803EB43031D0104244FF00C0A0AE06E
:103E10001AFB04510A1D04EB08003A44394409EB2B
:103E2000C00008F04DFE013CE4B2FF2CF0D1E1E708
:103E3000BDE8F087C00900204009002070B50646A3
:103E40000D461C46A2B1012362782078801A10F03A
:103E500003002CD01BB3012828D00132D2B222702B
:103E60001C4B0122294630465A5504F01BFA1CE02F
:103E700009F040FB0028E6D02946304604F0F0F96E
:103E80000028E0D030230C226B4302FB0633124A99
:103E90001A44937AD27A9B1A18BF0123D4E70232CC
:103EA000D2B22270D4E902039847002070BD002BE3
:103EB000F8D00132D2B222700423302212FB053234
:103EC0000C2313FB0623044A60681A44214608F0B9
:103ED000FAFDC5E74B160020C00900202DE9F04F80
:103EE000574B1A5C89B00546002A00F0A2800026D4
:103EF0001E5400EB40031B01DFF848B10493042477
:103F00003C2313FB00435B4403930096D946013CDA
:103F1000E4B2FF2C0CD1009B002B00F08A80002E15
:103F200040F0878032462946284604F079F980E03F
:103F300000230C2707936743302303FB057309EB2A
:103F4000030107AA59F80300496808F0C3FD049A61
:103F500004EB440302EB83034B44CDE90173824637
:103F6000BAF1000F47D0079B93F800805A78A8EB6E
:103F7000020808F00308B8F1010F04D1013A5A70A1
:103F8000D3E902029047079F3B787A78DBB29A1A0E
:103F900002F00302012A05931BD0019B02993020F5
:103FA00000FB0530274B18440022406808F09AFDBA
:103FB000059B7A787B703B78C7F804A09B1A03F0C6
:103FC0000303012B05D17A703946039A504608F055
:103FD0007AFD019A302303FB052309EB030107AAAD
:103FE000496859F8030008F075FDB8F1010F8246E1
:103FF000B6D1BCB9B0B9302212490C236A4303FBD5
:1040000004220A44917AD07A884215D130226A4338
:1040100003FB04235B441A7A597A91421CBF5A72FB
:10402000012674E7064B0122294628465A5504F01A
:1040300039F909B0BDE8F08FD17201220092E5E7AD
:104040004B160020C00900202DE9F04FC37F8DB032
:104050000446002B40F0BF83827F4AB1456A034685
:10406000012204210420AC460DB0BDE8F04F6047AA
:10407000436905930121837A8177C07A984259D0A8
:104080000B44DBB2022B08BF0023A37204EB8303B3
:104090000291D3F80CB0059B5B4423F07F4363612E
:1040A000637F04932368039363680B930023069351
:1040B00094F80990FF23019309F1FF335FFA83F924
:1040C000B9F1FF0F39D1637F049A9B1A18BF0123FE
:1040D0000393029B002B00F05A8203F021FD059B05
:1040E000C01A20F07F43089323680793D8464FF007
:1040F000000A677FFF2F0ED03EB206EB4606330163
:104100000993099A079B9D18AB68434540F2F380D9
:10411000A3EB0803AB60DDE9022304992046B94212
:1041200018BF13460199039308F052FD206800223E
:10413000677FA4E102929346B2E70B9B03EBC908A9
:10414000D8F80430079398F80310342098F80270D8
:104150008F42B1D0079B98F8005017FB00F29E18D1
:104160007B1CDBB29D4208BF002388F80230079B0E
:104170009A5C042AEAD9717801EB41031B010A9386
:104180000A98039B1D18082A6B78A878A3EB0003F4
:10419000DBB218D8BBB1052A40F0DC827268002A75
:1041A00040F0E682B268002A40F0E282F268002A1B
:1041B00040F0DE823269002A40F0DA82726932F021
:1041C0007F4240F0D5820121304608F0F7FCBAE783
:1041D000696AA24FA248CF19874281BF01F1E871F5
:1041E00001F5D43101F5A5716962D5E908178CBFD5
:1041F0004FF0010A4FF0000A7F1A92440EF1FF3E81
:104200006F62A3EB0A03A5F81EE0DAE2D5E908170E
:104210000F4492499248791881428EBF00210121B2
:10422000574411440EF1010E8CBF6F626F620B4454
:10423000A5F81EE0B5F81EE0F445E7D8A5F81CC0C7
:104240007268B168AF6A1344AB606B690B446B6111
:104250001FB13B680BB1521A7A60DDE9081228469B
:1042600008F08EFCF268AB691344326993428CBF4C
:104270009B1A0023AB61B37D03B1EB70F37D13B1E7
:10428000013B85F82C30039B0A9A1946019B8B54FD
:10429000737801936B7801336B70002194E7062AE1
:1042A00005D0204608F040FCAB78A8606B70227FF8
:1042B00073789A42F1D1FF2323773378062B01D00C
:1042C000082B0CD170686369C21A11020AD422F05B
:1042D0007F405844A369834288BFA061DDE703F0B3
:1042E0001FFCF0E7181A20F07F4083458CBFABEB32
:1042F00000000020EEE7089AB5F81E90D21A089246
:10430000A2699342A8EB03089A4425BFFF232377B1
:10431000D31A0023A361A9786B78D5F818C0AA6ACC
:104320005B1ADBB2BCF1000F0DD0022B0BD1B9F13F
:10433000000F08D122B192F808E0BEF1010F02D0BF
:104340002777C4F818C04FF0000C079E0998C5F8ED
:1043500008C016F800C084F81DC0D5F804C0BCF130
:10436000000F1DD1002A69D092F808E0BEF1010FBC
:1043700064D1137A012B15D1C5F808806970059BAB
:10438000616903EB0A02284608F0FAFB079B0999CA
:104390001A46019B53546B7801336B700197A8E662
:1043A000002AE6D1B5F81EE0BEF1000F24D1AB8B98
:1043B00099460020D5E908120A442849284E511888
:1043C000B1429FBFA2F1E872A2F5D432A2F5A57264
:1043D0006A6292BF029A6A620022624419F1FF394E
:1043E0001044E7D295F82C2032B3002213449E44A7
:1043F000A860A5F81EE0C2E769700023D8E7D5E9F8
:1044000008120A441549164E5118B1429FBFA2F135
:10441000E872A2F5D432A2F5A5726A6292BF029A3E
:104420006A6200226244104409F10109089981423C
:104430001FFA89F2E3D8D9E79146F7E74BB1012B90
:1044400002D0B9F1000F04D02B6A13B1696A0120C0
:104450009847AB786B70019FA0E700BF5A2B17FFFE
:10446000592B177F07EB47031B01C51810F803E012
:10447000AE6A1EB1337A012B00F066817746FF2FBA
:10448000F0D1002A039B18BF1346039383E0A16970
:104490008B4580F05D81A1EB0B0301937368029360
:1044A000029A33689A4259D24FF0000CA3EB0208EB
:1044B00072466346FF2A05D0A96905916144884583
:1044C00007911CD2AA6802998A1A1A447260AB60DA
:1044D0007246FF23FF2A47D002EB42084FEA081832
:1044E00000EB0809D5F808C0D9F808108C4537D971
:1044F000ACEB0101A960134610F80820EAE702EBD3
:104500004202120100EB020ADAF82890B9F1000F1A
:1045100006D099F80890B9F1010F01D1825CC9E782
:10452000DAF80890B9F1040F0ED9ACF104034B444A
:104530004345079928BF43468B4205D905995B1A25
:1045400002D001998B42BDD2DAF8181001EB0903B1
:104550000193059BCC44A8EB0303DFE70023B1E7FD
:10456000A1EB0C01C9F80810FF2B08D01BB203EB1C
:1045700043031B0184F81DE0C25C2A70C754EB8B17
:10458000013BEB834FF0020333720122D0E5019926
:10459000204608F01DFB637F049A9342069B40F07F
:1045A000CD8033B96368657A0193013DEDB2FF2D8B
:1045B00016D1039B4BB1637FFF2B76D103F08AFAB0
:1045C00018B9A06103F0ACFA60610023A377E37F20
:1045D000002B00F00081656A23460122032141E59A
:1045E000019B03EBC506D6F804807378F2789A42F3
:1045F000DBD0342213FB02F208EB020318F802208E
:10460000022A13D0032A41D0012A06D100229A623D
:10461000DA6A12B1196B986A90477378327801336D
:10462000DBB29A4208BF00237370DEE7D3E9019042
:1046300099F80020D3F80CE0D4F800C06169FF2A93
:1046400002D007688F4209D0627F01600021FF2AF3
:104650000CD189F80020CEF80010D7E702EB420217
:104660001201DEF800101CF80220F0E702EB420A0B
:104670004FEA0A1A0CEB0A0BDBF808000144DBF8DE
:1046800018000028E5D11CF80A20E0E75A78217AC2
:10469000914208D9216802EB420201EB021219791A
:1046A00082F82D10B2E70122B1E7049BFF2B06D15F
:1046B00003F036FA054603F0FFF900B96561637F40
:1046C0002268DFF81881DFF81891DFF818A103EBF2
:1046D000430302EB03130A269F6803F021FA65697E
:1046E000431B23F07F430333BB422CBFED18ED196E
:1046F00025F07F458346A36A2846984703F010FAC1
:10470000A0EB0B0020F07F40A5EB0B05033025F05C
:104710007F45A84206F1FF367FF657AF002EDCD169
:1047200040F63E1342464946504607F045F84040A1
:1047300080F311884FF0030002DFCEE7002B7FF4F7
:104740003AAF012303932DE7237FFF2B7FF49FAE26
:104750000023A2E6012B3FF4A2AD04212346656AA3
:1047600001220846A847012388F802700693A3E4B3
:10477000012BF2D1204608F0D7F96369A8600746FB
:10478000089303F0CDF9089B0990C31A23F07F43E7
:104790005B449F4202469EBF6A69D21B9B186A68AF
:1047A00096BF6B61FB1A0023002A3FF449ADB18A22
:1047B00000293FF445AD01F1FF3C1FFA8CFCA6F83F
:1047C00014C09A42B5F81EE002D2F445FFF400ADE1
:1047D000DFF814A02EE50DB0BDE8F08F80F70000E3
:1047E000E2F8000007F20000B6562EFEF0B594463F
:1047F000059F9DF81860079A08B10120F0BD184C7C
:104800002172C4F800C00139C9B2FF2916D1637200
:1048100067603425013BDBB2FF2B16D1002EECD1B3
:10482000089B2362099B63620A9BA3624FF6FF7396
:10483000C4E90566A38366813046DFE701EB4105E5
:104840000CEB051585F82D00DDE719B207EBC1006B
:10485000426017F8310000FB0522301AC6B2D9E7D2
:10486000800A0020074A2C2303FB002110B44C6A65
:1048700034B10B46A44601220321022010BC60473C
:1048800010BC7047800A00202DE9F843234C2C26E9
:1048900000FB06490CB2D9F8040000EBC40C10F878
:1048A00034009CF803707D1CEDB2A84298BF00252F
:1048B0009CF80100A8422FD0342017FB00F7DCF849
:1048C0000400C4194FF0040800F807806360089BD7
:1048D000A360099BE3600A9B23610C9BA361BDF865
:1048E0002C30A382119B63620D9BE3610E9B2362BC
:1048F0000223A3620F9BE362109B627023638CF818
:104900000350D9E90835084698474B4600224146EE
:10491000A847A06ABDE8F8830120FBE7800A0020D1
:104920002DE9F041224C2C2600FB06480CB2D8F8A9
:10493000040000EBC40C10F834009CF803707D1CDC
:10494000EDB2A84298BF00259CF80100A8422DD0E6
:10495000342017FB00F7DCF80400C4194FF0050EF3
:1049600000F807E06360069BA360079BE360089B79
:104970002361BDF82430A3829DF82830A3759DF8EB
:104980003430E3750223A3620B9BE3620C9B6270DD
:1049900023638CF80350D8E9083508469847434606
:1049A00000220421A847A06ABDE8F0810120FBE7AE
:1049B000800A00202DE9F0411A4C2C2500FB054807
:1049C0000EB2D8F8040000EBC60C10F836009CF8C4
:1049D00003707C1CE4B2A04298BF00249CF8010044
:1049E000A0421CD0342017FB00F7DCF80400C619E5
:1049F0004FF0070E00F807E072700222C6E90A23A2
:104A0000069B33638CF80340D8E90834084698477E
:104A1000434600220421A047B06ABDE8F08101208E
:104A2000FBE700BF800A002070B5044600200D4659
:104A300008F070FB064660B9062229462CB10648EC
:104A400007F01AFE3446204670BD044807F014FEF5
:104A5000F9E70C24F7E700BF551600204F16002099
:104A6000012806D8044B054A00280CBF18461046FA
:104A700070470020704700BF4F16002055160020D9
:104A800008B50248FEF7E0FB002008BD8CE90000F5
:104A9000838937B5044683B901234FF0000163F3DE
:104AA00007011A4A1A4B1B489B1ADB0863F38F1144
:104AB00007F0A2FA6FF0150016E0017DB1B901917F
:104AC00001A900F0B5F958B1FEF7A0FB019D3DB179
:104AD000284608F0CCFA019968710F4809F0D5F81A
:104AE000204603F04DFD002003B030BD01234FF000
:104AF000000263F307020548054B1B1ADB0863F34A
:104B00008F12064807F085FAD4E700BFA8E6000038
:104B1000E8E60000E5F70000D8030020F6F7000003
:104B200073B50F4D0F4E0DF1020101A800F074FE98
:104B30000028F8D1019B5BB100F080FE019C20466B
:104B400008F095FA01996071304609F09EF8EAE79D
:104B50004FF0FF324FF0FF33284605F077FCE2E7D5
:104B6000C0030020D8030020F7B5284E00274FF0DF
:104B7000FF324FF0FF33304605F00CFC0028F6D032
:104B800090F9053001905A1E032A2DD8022B23D10B
:104B90000022002301210020FDF764FD044618B126
:104BA0000146019800F0C6FB019B01A81F6000F0C0
:104BB00085FE002CDBD0204608F078FD2146054616
:104BC000002008F077FDAB8904462846DBB1FEF7EC
:104BD000B7FA06F037F8ECE74FF0FF324FF0FF334B
:104BE0000120FDF713FDD9E740F24713084A0949B0
:104BF000094806F0E1FD404080F311884FF00300C2
:104C000002DF0024D0E703F0BBFCE2E7D80300207A
:104C10000AF800006700010007F20000D0B5224842
:104C200088B000F02BFD044688B101234FF000024C
:104C300063F307021D491E4B5B1ADB08014663F351
:104C40008F121C4807F0E5F9204608B0D0BD08F0E7
:104C500010FA002600276FF00903CDE90243CDE9E1
:104C600006670494CDE90044134B144914484FF4EB
:104C7000E07205F02BFA1349114808F088FF6FF035
:104C80000703CDE90243CDE906670494CDE900446A
:104C90000D4B0E490E484FF4806205F017FA0D498E
:104CA0000B4808F074FFCFE7C0030020A8E600001F
:104CB000E8E60000B8F70000214B0000A02100202A
:104CC000A0050020D5F70000694B000080230020DC
:104CD00020060020DFF7000038B5074B054601210C
:104CE000188807F053FD01210446083008F0EEFC57
:104CF0000570204638BD00BF9415002038B5064B1E
:104D0000054618880C4607F041FD2146286008300A
:104D1000BDE8384008F0DABC94150020F0B5013841
:104D200087B0144609287DD8DFE800F0051C337CE5
:104D30007C5A7C3F63700D211046FFF7DFFF022392
:104D40004370C370837107230021C3710123017075
:104D5000817001714171017243728172C17201737C
:104D6000002413E041211046FFF7C8FF0024054648
:104D7000402200F8014B214607F089FC6B7863F074
:104D800058036B70AB7843F00303AB70204607B059
:104D9000F0BD09211046FFF7B1FF002400F8014BD8
:104DA0000822214607F073FCF0E7204B01AA03F12B
:104DB0001007164618685968154603C50833BB42E4
:104DC0002A46F7D11B782B7012212046FFF796FF59
:104DD000002400F8014B1122314607F04DFCD5E7C5
:104DE00089680020FFF720FE0020FFF775FF206094
:104DF000B6E718211046FFF781FF00240546012180
:104E000000F8024B08F094FB6870BFE721211046C0
:104E1000FFF774FF0146002401F8114B013008F040
:104E2000DDFBB3E76FF01504B0E700BFC7F8000083
:104E300070B583898AB00025022B0446059510D8E9
:104E400001234FF0000163F30701DE4ADE4BDF4828
:104E50009B1ADB0863F38F1107F0CEF828460AB0DF
:104E600070BD0321083008F048FCA28983789A427B
:104E70000CD201234FF0000163F30701D14AD24B5A
:104E8000D3489B1ADB0863F38F11E5E70188D14E05
:104E90008BB2C3F309009B0A042B31801ED006D8C5
:104EA000032B10D00121308807F082FC7AE1082B17
:104EB00000F0A4803F2BF5D105AA2146FFF72EFF75
:104EC0001630EFD07EE0032805D0632801D00128FA
:104ED000E8D1002064E100F02FFCFAE7013808284F
:104EE000E0D801A353F820F00D4F0000374F000029
:104EF000C94F0000A54E0000A54E0000A54E0000C1
:104F0000A54E0000A54E0000E54F0000092105A8B0
:104F1000FFF7F4FE002303708370C3706FF00E037D
:104F20000C22437105238371427002714FF0FF33ED
:104F3000C371037246E0412105A8FFF7DFFE00219F
:104F40000446402200F8011B07F0A1FBA379217F52
:104F5000A27E63F03F03A371E37A43F00403E3729C
:104F6000E37B43F02803E373237C43F002032374C1
:104F7000E37D43F00403E375E37E63F03C03E376F3
:104F800094F8233063F0070384F8233094F8243036
:104F900043F0070384F8243094F8283061F03C0192
:104FA00043F00403217784F82830617F94F8273098
:104FB00041F0080162F0080263F07F036177A27696
:104FC00084F8273005984AE7092105A8FFF796FEDF
:104FD00000210446082200F8011B07F058FB60235B
:104FE0006371EFE7072105A8FFF788FE014600235C
:104FF00001F8013B184608F029F8E3E701384D288D
:105000003FF650AF01A353F820F000BFD34E00008D
:10501000455100005D510000A54E0000995100006F
:10502000415200005D5200006D52000079520000B4
:1050300085520000A54E0000A54E0000A54E0000C0
:10504000A54E0000A9510000BF510000D951000039
:10505000E1510000A54E0000A54E0000A54E000045
:10506000A54E0000E95100000F520000A54E0000BF
:10507000A54E0000A54E000025520000A54E0000E0
:10508000A54E0000A54E0000A54E0000A54E000054
:10509000A54E0000A54E0000A54E0000A54E000044
:1050A000A54E00008F5200009D520000A552000046
:1050B000AB520000C1520000E1520000FF5200005C
:1050C00009530000A54E0000A54E0000A54E0000AB
:1050D000A54E0000A54E0000A54E0000A54E000004
:1050E000A54E0000A54E0000A54E0000A54E0000F4
:1050F000A54E0000A54E0000A54E0000A54E0000E4
:10510000A54E0000A54E0000A54E0000A54E0000D3
:10511000A54E0000A54E0000A54E0000A54E0000C3
:10512000A54E0000A54E0000A54E0000A54E0000B3
:10513000A54E00001D530000A54E0000A54E000026
:1051400013530000042105A8FFF7D8FD00230370C6
:105150001B22837003234270C37033E7092105A823
:10516000FFF7CCFD00210446082200F8011B07F0E0
:105170008EFA07F087FFC0F307236070A370000C5E
:10518000C1F307236171090CE070E171000A090A9B
:105190002071A371217215E7A1680120FFF744FC7B
:1051A000FFF79AFD05900DE7022105A8FFF7A6FD80
:1051B00000230370044608F08BF8607002E701F0EA
:1051C0000BF8EDE7A8E60000E0E6000061F800005B
:1051D00077F8000094150020A06801F01FFADFE7BF
:1051E000A06801F009F8DBE7A06806AA002300F137
:1051F000100108F035F9112105A8FFF77FFD002304
:1052000000F8013B102206A907F036FADAE6092178
:1052100005A8FFF773FD002300F8013B082101F00A
:1052200021FFCFE6092105A8FFF768FD002303222F
:10523000037042708370C37003714371837177E6AA
:10524000A468A57BA3796279217920880295657B82
:1052500001950734009400F0DFFDA1E7022105A8C5
:10526000FFF74CFD002303704370ABE6A16811F813
:10527000010B00F0E7FE93E7A16811F8010B00F0C5
:10528000E9FE8DE7A3681878FAF746FF88E7A0687B
:1052900000F11702C11D01F017FA81E7A06801F0C3
:1052A000B5FA7DE700F0DCFF7AE7022105A8FFF7F9
:1052B00025FD044608F00EF800236070237081E697
:1052C000A168072206A807F0D7F9072105A8FFF76C
:1052D00015FD0446411C06A801F008FB207071E68C
:1052E0000722A16806A807F0C7F9072105A8FFF75C
:1052F00005FD0446411C06A801F01AFBEEE7A36871
:10530000187800F0EBFF4BE7A368188800F0FEFF69
:10531000DFE5A068C17901F025FB41E7032105A87D
:10532000FFF7ECFC0146002301F8023B013007F0D7
:105330009AFE47E608B50379032B0CD041F69A0391
:10534000054A0649064806F037FA404080F31188BE
:105350004FF0030002DF08BD95F800006700010070
:1053600007F2000010B5044607F0CCFF60B140F230
:10537000C973104A1049114806F01EFA404080F3E4
:1053800011884FF0030002DF07F0FFFF60B140F229
:10539000CE73084A0849094806F00EFA404080F3E7
:1053A00011884FF0030002DF2046BDE8104005F0F1
:1053B00027B800BF8EF90000C2F9000007F2000014
:1053C0002DE9F341324F334D01AAD7E9000107F02F
:1053D00081FB8046002857D000223946786807F0C4
:1053E00081FB019EF46994B1237863B940F60123EF
:1053F000294A2A492A4806F0DFF9404080F31188FB
:105400004FF0030002DF2378013BDBB2237096F8F4
:10541000203063B14FF424631F4A2249204806F02C
:10542000CBF9404080F311884FF0030002DFEA78A7
:105430006878A978002386F82030531CDBB29842A4
:1054400008BF0023994211D0C6F80080297801FBDB
:1054500002525660EB70002CB6D02378002BB3D1EB
:105460006369002BB0D0A0699847ADE740F64723A9
:10547000094A0D490A4806F09FF9404080F3118817
:105480004FF0030002DFE6E702B0BDE8F08100BFA5
:10549000400D00203C0100208EF90000D3F90000EF
:1054A00007F2000067000100E8F900000860014809
:1054B00004F0A6BF540D00202DE9F843194F1A4EF1
:1054C00097F8008007F10409B8F1000F0ED0F478C6
:1054D0007278B3780134E4B2A24208BF00249C423F
:1054E00004D0484607F0A4FA054608B9BDE8F88399
:1054F0000E4807F09DFA28B928460D49BDE8F84343
:1055000007F0AFBA0560F278337802FB03635860A6
:105510003B78F470013B08F1FF383B705FFA88F884
:10552000D2E700BFA00B002054010020E00B0020B8
:10553000A40B0020454B04222DE9F04198182821A6
:1055400007F052FA424B434DDFF80481052208214F
:10555000181D07F049FA2E46EC786A78AB780134CA
:10556000E4B2A24208BF00249C420DD0404607F09E
:105570005FFA074640B1354807F05AFA00285CD177
:105580003349384607F06DFA334B0522181D442184
:1055900007F02AFA314B0722181D082107F024FAD8
:1055A0002E4807F045FA044660B940F2A7732C4A2A
:1055B0002C492D4806F000F9404080F311884FF047
:1055C000030002DF294A2046111F07F079FA20481C
:1055D00007F02EFA044660B940F2AF73204A214921
:1055E000214806F0E9F8404080F311884FF00300AD
:1055F00002DF1F4A2046111F07F062FA174807F022
:1056000017FA044660B940F2B773154A15491648AF
:1056100006F0D2F8404080F311884FF0030002DF1B
:10562000144A2046111F07F04BFA134B04221A703C
:10563000FFF742FF0020BDE8F0810760F278337881
:1056400002FB03635860F47086E700BFD00A0020B5
:10565000740B00203C010020E00B0020A40B002074
:105660008EF9000003F9000007F200004C0D002045
:10567000440D00203C0D0020A00B002010B5234B52
:1056800086B0186002F00AFAFEF7AEFB204A02214B
:105690001174117604231F491370137205911E496A
:1056A00004911E4903911E4902910C21CDE900216C
:1056B00000201C4A0321FFF799F860B140F2012352
:1056C000194A1A491A4806F077F8404080F31188C1
:1056D0004FF0030002DF01220021164808F026FBEC
:1056E00001F08CFC044670B9FFF724FF044650B962
:1056F00001F02EFF044630B907F005FD044610B94D
:10570000012001F05DF9204606B010BD500D0020CB
:105710006C10002017D5000049830000F1820000C2
:10572000FC0D00206C0D00208EF90000C2F9000075
:1057300007F20000540D002010B586B007F0E5FC1C
:1057400060B140F2A1232C4A2C492D4806F034F8D0
:10575000404080F311884FF0030002DF002001F089
:105760002FF9284B00245C80274B5C80274B5C8002
:1057700001222146684608F0D9FA254B22462146E7
:105780000320C3F808D0FEF759FB60B14FF4417312
:10579000194A20491A4806F00FF8404080F3118852
:1057A0004FF0030002DF4FF0FF324FF0FF33684647
:1057B00004F04CFE00F0ACFB60B140F211330E4A35
:1057C0000E490F4805F0F8FF404080F311884FF074
:1057D000030002DFFFF7AEFE60B140F21E33064A5F
:1057E0000649074805F0E8FF404080F311884FF074
:1057F000030002DF06B010BD8EF90000C2F9000000
:1058000007F200006C0100203C0100205401002040
:10581000700200200DF9000013B500230360064B51
:10582000044601AAD3E9000107F054F908B1019B2D
:105830002360002002B010BD380D002013B51849B8
:10584000002301AA4868019307F04CF9044660B9A7
:105850004FF46673134A1449144805F0ADFF4040F5
:1058600080F311884FF0030002DF1149204607F052
:10587000F8F8019B1B7973B90A4A0E494FF49663F5
:105880000A4805F099FF404080F311884FF003006B
:1058900002DF02B010BD40F2B443024A0649EFE70E
:1058A000380D00208EF9000003F9000007F2000017
:1058B000A40B002015F90000670001002DE9F0415C
:1058C0000468204D204E074624B93C60BDE8F041F5
:1058D000FFF7F2BD2379D4F800802BBB40F25C5374
:1058E0002A461A491A4805F067FF404080F311889C
:1058F0004FF0030002DF3378032B0CD940F2A5539D
:105900002A461449124805F057FF404080F3118899
:105910004FF0030002DF33780F4901332046337024
:1059200007F09FF84446CFE740F299532A460B49C7
:10593000074805F041FF404080F311884FF0030015
:1059400002DFEFE78EF90000A00B002033F9000022
:1059500007F2000056F90000E00B0020670001008C
:1059600030F0020310B50C460FD00B68022B0CD19F
:1059700040F22263094A0A490A4805F01DFF4040E7
:1059800080F311884FF0030002DF4FF0FF324FF039
:10599000FF33054804F05AFD206810BD8EF9000061
:1059A000F8F9000007F20000540D0020024B1A68BD
:1059B00002B9186018687047CC0A002005490B68C6
:1059C0002BB198424FF000020CBF0A6013461846F4
:1059D000704700BFCC0A0020014B1868704700BF19
:1059E000CC0A002030B5046887B0054614B9002001
:1059F00007B030BD2378002BF9D001220021684682
:105A000008F094F9114B63612378C4F818D0002B87
:105A1000EDD00F4B0022114603209D60FEF70EFAD9
:105A200060B140F29C630B4A0B490C4805F0C4FE80
:105A3000404080F311884FF0030002DF4FF0FF3247
:105A40004FF0FF33684604F001FDD1E78BD0000032
:105A5000800200208EF9000008F9000007F2000023
:105A600010B50A4A9178D4785378A1428ABF5B1A5C
:105A7000631A1B19DBB2984206D8A142137803D0EF
:105A800001FB0322506810BD0020FCE754010020F8
:105A9000014A07F018B800BF440D00200122024B54
:105AA00011460020FEF7CAB9900200202DE9F84304
:105AB000144E0F461146F27834788046551C7078A3
:105AC0009946EDB2B378A84208BF0025AB4216D084
:105AD000331D02FB04347CB11022204606F0CCFDBD
