:100000004055002071460000BF76010045460000C3
:10001000454600004546000045460000000000003F
:100020000000000000000000000000004943000044
:100030004546000000000000F542000091990100D3
:1000400001440000190F01000144000001440000B8
:10005000014400000144000001440000014400008C
:10006000014400000144000001440000014400007C
:10007000014400000144000001440000014400006C
:10008000014400000144000001440000014400005C
:10009000014400000144000001440000014400004C
:1000A000014400000144000001440000014400003C
:1000B000014400000144000001440000014400002C
:1000C000014400000144000001440000014400001C
:0C00D00001440000014400000144000055
:1000E00053B94AB9002908BF00281CBF4FF0FF319F
:1000F0004FF0FF3000F00CB8ADF1080C6DE904CE04
:1001000016F04CFBDDF804E0DDE9022304B0704793
:10011000704700BF000000002DE9F0410F46D0E914
:100120000B15866A4C193034A642904618D8144DE7
:1001300011A3D3E90023A1FB0501FFF7D1FFA41B05
:1001400020F07F4038600CA3D3E90023A5FB040115
:10015000FFF7C6FF20F07F40C8F80000BDE8F0813F
:10016000074C05A3D3E90023A6FB0401FFF7B8FF62
:100170003035E5E7AFF300808D49FD1A0700000038
:1001800000CA9A3B000000002DE9F04FB44C94F8EF
:100190006A5093B005F00105002800F06981002D38
:1001A00040F0338294F82500FF2300F0030084F828
:1001B000263010F05FF994F86A00420727D494F8CB
:1001C000292094F8353004EB820204EB8303D76ACC
:1001D000D3F8388087B13946A1480CF057FC3B78FA
:1001E0005B0605D5062107F0B3FE002800F04A8221
:1001F00041469B480CF04AFC3B7813F00E0F40F050
:100200001B81236A93B10C2013B0BDE8F08FC0F3BB
:10021000C0002A4604F16B0110F098FAFF2884F818
:100220002600CCD0284610F03FF9C8E70BF006FDB9
:100230008146002800F052820BF00CFD0A90002845
:1002400000F051820DF0D2F80546002800F04882F7
:100250004FF6FF73406F2B8505F11C030B930028AD
:1002600000F0388205F1680205F1640107F07CFEB8
:100270007C4EB5F8603095F8392095F87A0095F8FD
:100280003C1095F8D6C0DFF8E4E1C5F85CE03340F7
:1002900043F48873002602F03F0266F3000C4FF02F
:1002A0001B1E4FF0060B43F0010362F07F0220F0AB
:1002B000070021F007014FF6FF7A85F8D6C0C5F890
:1002C00058E0A5F8603085F839206FF0FF0385F815
:1002D0007A0085F83C105A460DF139016E67A5F891
:1002E0007860EE852E6385F83B60C5E912662E6561
:1002F000A5F8C460A5F8C860A5F8D060A5F8CC60E2
:10030000A5F8C0B005F1D7000E93ADF83CA08DF86C
:100310003EA017F011FA95F8D610ADF844A066F398
:1003200041016FF0FF035A4685F8D61005F1DD0054
:100330000DF1410110938DF846A017F0FDF995F8E5
:10034000E430A5F8F06023F0070385F8E43085F881
:10035000F260C5F81461A5F81861A5F830610AF0DB
:1003600067FC95F896A195F8BEE195F84AC195F815
:100370007A2095F87631A5F8486166F3C30E2CF023
:10038000030C22F0180223F00703C5E94E0166F3BF
:10039000451A0021002085F8BEE185F84AC1C5E96B
:1003A000500185F87A2085F87631A5F8506185F8F6
:1003B0005361A5F8746185F8E560A5F89461C5F806
:1003C000EC60A5F8BC61A5F8C861C5F8549185F842
:1003D00096A10DF081FBA5F8D2000DF083FBD5F8B6
:1003E000CC21214BA5F8D4001340C5F8CC310DF039
:1003F0007FFB95F8D03160F3020385F8D0310DF022
:100400007DFB95F8D0310A9A626660F3C5030B9ABA
:10041000C4F860902262C5F8E461C5E97766C5E971
:10042000756685F8D0312E70C5E90566ED6111F06D
:10043000A3FA002840F0288194F824300121C3F366
:1004400042030DA88DF8343007F000FF00287BD15F
:10045000236A002B3FF4D7AE0CF0FCF8D3E600BFC4
:10046000BC34002080F8FFFF0000FFF6480148017F
:10047000002D00F0CA80236A5BB193F8202042F07F
:10048000020283F82020236A93F82030D8073FF532
:10049000BAAE9F480BF08AFC84420CD040F6BF13E2
:1004A0009C4A9D499D4816F026FB404080F31188E8
:1004B0004FF0030002DF94F82430D9070DAD0ED5BC
:1004C00002220D9203210095954B0122002009F094
:1004D000E7F829460BF042FC002840F00981022190
:1004E0000A460D91009503218D4B002009F0D8F8A4
:1004F00029460BF033FC002840F0D88089480BF0E7
:1005000091FC002840F0C48081480BF05BFC8442E1
:100510000CD040F6E1137F4A7F49804816F0EBFA91
:10052000404080F311884FF0030002DF236A0BB1D3
:100530000CF090F894F86A3000206FF3000384F810
:100540006A3013B0BDE8F08F98F8011002463846C3
:100550000BF0ACFE744BE4610025312680B2A0FBA9
:100560000301C4E9026568A3D3E900232570C4E947
:1005700005556560FFF7B4FDB4F86880206109F0A7
:10058000D7F80646B8F1000F07D13D7805F00F0502
:10059000A5F10105B5FA85F56D0994F824002369E4
:1005A00065F3000010F0010584F8240031D0DFF875
:1005B00070815E490493002002250CAF01930591E0
:1005C000069403212A46CDE90787CDE90200009071
:1005D00033460C9508F0DAFF39460BF0BFFB0028D4
:1005E0007FF436AF524905914AF2D8320092CDE9F4
:1005F00007870694CDE90300CDE9010033460122C7
:1006000003210C9508F0C2FF2FE0002013B0BDE8D5
:10061000F08F4848484ADFF808C106941FFA88F866
:10062000A8FB0001912707FB081103F24717176089
:1006300004933E4B09924FF002084FF6FF7E05935C
:100640000CAF31A3D3E900230295CDF83080CDE97A
:1006500007C7CDF80CE0FFF743FD4246CDE9005057
:1006600033462846032108F037FF39460BF076FB66
:1006700000287FF4EDAE94F86A3043F0010384F86B
:100680006A30C1E51220BFE50BF0E4FF0320BBE5B3
:1006900040F6DE131F4A2949204816F02CFA404044
:1006A00080F311884FF0030002DF2DE718480BF0AC
:1006B00089FB84423FF4A7AD40F6D813154A16498A
:1006C000164816F018FA404080F311884FF00300E6
:1006D00002DF98E505F16C006867C3E5072093E544
:1006E0000A980BF0BDFA48460BF0AEFA07208BE5EE
:1006F00007480BF067FB84423FF485AD40F6CA1310
:10070000DCE700BFAFF300808D49FD1A0700000051
:10071000BC34002008AD010008AE010054AA01005D
:10072000D1AC0000D834002000CA9A3BBDC4000000
:1007300039C40000002AE7843435002030AB0100C2
:10074000F0B590F824308BB0C3F342030D46044655
:1007500001210DF1230016468DF8233007F076FDB8
:100760007178024628460BF0A1FD1F4B80B2A0FB1A
:1007700003011BA3D3E90023FFF7B2FC23699842CE
:10078000054620D21B1A0020184A194E0293A21ABD
:10079000A6FB0232174901909209002309AE0232EA
:1007A000CDE90516D2B20321CDE9033300931846F3
:1007B0000227099708F05CFF31460BF0CFFA30B9F9
:1007C00025610BB0F0BD05D9C01A0023DCE70C2071
:1007D0000BB0F0BD00200BB0F0BD00BFAFF3008048
:1007E0008D49FD1A0700000000CA9A3BBC34002066
:1007F00089888888D1AC00002DE9F04F90F8F1503D
:1008000090F8F0C065458BB004468846174630D056
:10081000ACEB050505F00305022D0FD094F9396006
:10082000002E42DB94F8503194F851219B1ADBB230
:10083000012B54D000200BB0BDE8F08F94F8BC31F0
:1008400094F8BD219A4206D094F8BE2102F0060128
:10085000042900F0458594F8F220013A052A00F2B7
:100860002985DFE812F0AD037903F3022705AA0218
:100870000D0290F93960002EC0F22B8594F8763184
:1008800013F00109CCD194F8191194F818218A4277
:1008900001F004800123023D84F8F23084F8F15025
:1008A00094F8BC3194F8BD21CCE794F8E500002819
:1008B000B8D0022800F0D48406285BD0012800F0CC
:1008C000F58040F28343754A7549764816F013F96E
:1008D000404080F311884FF0030002DFA2E7724826
:1008E00007F0ECFA002838D094F85131013B84F835
:1008F000513103790222427143F003030371C27143
:10090000D4F8D43194F852210272D4F8D821B3B17A
:1009100094F876118D0712D494F8CF11C9070ED42C
:10092000D4F8E0118B4201F026845AB91A7902F00A
:100930000302032A01F0AB86C4F8D83104E0002A90
:1009400001F00280D4F8DC311A6802601860036894
:10095000C4F8DC010BB9C4F8E401B4F8C8000028FD
:100960007FF468AFB4F8C230012B40F2E887A4F8F6
:10097000C8305FE7638EE18D94F8F4200B441F4488
:1009800012F00105BFB240F07186B4F8F630FF1ADC
:100990003A043FF547AF0BF099F9014600283FF4C0
:1009A00041AF0068D4F81431436094F93930C4F889
:1009B0001411002BC1F2748294F8F03084F8F130F5
:1009C00094F8F42094F8603094F86150B4F85E60C4
:1009D00012F01C0F03F0070805F0070541F01B8219
:1009E000B4F85C70C44612F0E00F01F0118294F884
:1009F00061304FEA521E6EF3020384F861304FF407
:100A0000A4764368C4F81431930702D4E04501F09A
:100A1000EF83238DCB801C22002381F81DC081F839
:100A20001EE00A710B770BF021F9D4F81451002D58
:100A300001F03F822868002801F03B82B4F85C3066
:100A40004268C4F81421BB420AD3B3F5A47F07D887
:100A5000B4F85E30B34203D3B3F5A47F41F2DB8335
:100A6000A4F85C70A4F85E602B7F228DEA8043F0CE
:100A7000030309226A772B77B4F85A30B4F8581078
:100A80002B8403221523A9842A71EB7729466E84CF
:100A9000EF840BF0EBF80BF0F3F8C3E614AE0100B3
:100AA000D8AA010054AA0100E8350020668EE28D24
:100AB00094F81A3116443E4413F00703B6B240F0DE
:100AC0003486B4F8F490A6EB090A1FFA8AFA1AF4ED
:100AD000004F7FF4A7AE94F8941194F8952194F800
:100AE000180184F8E5308A4284F8190109D094F895
:100AF000962102F00F02062A04BF84F89511A4F88B
:100B0000C830CD4BD4F814511A68944204BF002267
:100B10001A60002D00F0FE872868002800F0FA8790
:100B2000B4F81C31B4F82AC04268C4F814216345F3
:100B3000B4F81E21B4F8201101F03981B4F828C0AE
:100B4000A5F806C04FF0180E4FF0000CEB832A8476
:100B5000698485F804E085F81CC029460BF086F806
:100B60000BF08EF8A368002B0ADAE268616823F0C4
:100B700000438A422CBF90448844A360A8EB03083A
:100B8000638DB4F81C5113FB0AF39BB2B3FBF5F170
:100B90001FFA81FB15FB0BF292B2934280F03D8766
:100BA000D31AA64840F2E24202FB03F3A3FB000182
:100BB0009FA3D3E90023FFF793FA20F07F408044FE
:100BC000E38DA9EB06061F4494F939305E443E4498
:100BD000002B40F2E247E68507FB05F580F28F82A5
:100BE000A26C236C954E03FB1A23A36410F016FF2E
:100BF000814694F8E400C0F3C20010F011FF09EB45
:100C0000000305FB03F38E48A26C94F8281103F54A
:100C1000742303F23F23A0FB03034FEA934A0AFB2A
:100C20000BF06B080244963B9A4207FB01FC28BF7D
:100C30001A464FF0000EC4F840A0C4E91132C4F8BF
:100C400050C07BA3D3E90023C4F8ECE0A0FB06016D
:100C5000FFF746FA7B4AD4F82431A2FB03239B0A10
:100C600007FB03F7A8EB000871A3D3E90023A7FB58
:100C70000601FFF735FAA5EB0A0A20F07F474DE29F
:100C8000E18D638E94F8F4200B443B4412F001098B
:100C90009DB2114640F06683B4F8F63094F939609D
:100CA000EB1A18043FF5BCAD002EC1F24582D4F812
:100CB000145194F8F03084F8F13094F8603094F8DE
:100CC00061A0B4F85E9012F01C0F03F0070B0AF05D
:100CD000070A41F09380B4F85C6012F0E00F08D08E
:100CE00094F86130520962F3020384F861304FF4E2
:100CF000A479002D01F0A6802868002801F0A280C8
:100D000094F861C094F860204368C4F81431C2F3C9
:100D10000202CCF3020389075FFA82FC5FFA83FECA
:100D200002D4E34501F04282218DE9804FF01C0C92
:100D3000002129776A77AB7785F804C029460AF045
:100D400095FFD4F81451002D01F08E8028680028FA
:100D500001F08A80B4F85C304268C4F81421B342D0
:100D60000AD3B3F5A47F07D8B4F85E304B4503D35C
:100D7000B3F5A47F41F22E82A4F85C60A4F85E90E3
:100D80002B7F228DEA8043F0030309226A772B77B9
:100D9000B4F85A30B4F858102B8403221523A984D0
:100DA000EE842A71EB772946A5F822900AF05EFFBF
:100DB0000AF066FF94F9396032E5234807F07EF8BF
:100DC00000283FF42BAD94F8F03084F8F130012383
:100DD00043710279D4E9753542F0030212210271A0
:100DE000C171002B00F0BA8594F87621920700F1CA
:100DF000B58594F8CF21D60700F1B085D4F8E0216D
:100E0000934201F03684002D01F09684D4F8DC3151
:100E10001A68026018600368C4F8DC01002B01F056
:100E20000D80B4F8C630A4F8C83094F93960F7E4FE
:100E30008D49FD1A070000005435002000CA9A3B76
:100E400083DE1B435917B7D1E835002094F80031F1
:100E500013F0030500F05E8394F93930002BBFF6E0
:100E6000E1AC012D7FF421AD544807F027F8054689
:100E700000283FF4D3AC03790D2243F003034FF075
:100E8000040900F108060371427180F807900C21F3
:100E9000304610F0C1FA3146082204F5857016F08C
:100EA0004BFC4A4605F1100104F1980016F044FC91
:100EB000D4F8D431002B01F0338194F87611D4F8B2
:100EC000D821890701F12E8194F8CF11CE0701F1C5
:100ED0002981D4F8E0118B4201F06785002A01F0E6
:100EE0007C85D4F8DC311A682A601D602B68C4F850
:100EF000DC51002B01F09E830AF0E8FE0546002835
:100F00003FF48CAC2B7F228DEA8043F00303032255
:100F100017212B772A71EA776977082204F2791171
:100F200005F1200016F008FC94F8773185F8283098
:100F300094F8783185F82930294628680AF096FE19
:100F40000AF09EFE94F8003194F93960022262F3AF
:100F5000010384F8003163E4638EE18D94F8F4209A
:100F60000B443B4412F001029DB240F03383B4F8CD
:100F7000FA3094F93960EB1A18043FF551AC002EA1
:100F8000C0F2538794F8F03084F8F13004F134055E
:100F9000052204F1F501284616F0CEFB284605216E
:100FA00007F054F994F83960012360F3050684F8DA
:100FB000396084F8E83176B232E400BFE8350020C9
:100FC000B4F83290E28D94F81A319144B94413F098
:100FD00007031FFA89F940F02A82B4F8F4A094F9C3
:100FE0003960A9EB0A0B1FFA8BFB1BF4004F7FF44F
:100FF00017AC002EC0F2348594F8F03084F8F1304C
:1010000094F8942194F8953194F8181184F81911F2
:1010100093420AD094F8963103F00F03062B04D1C3
:10102000002384F89521A4F8C830C14BD4F814519A
:101030001A68944204BF00221A60002D00F0008557
:101040002868002800F0FC84B4F81C31668D4268E2
:10105000C4F81421B342B4F81E21B4F8201100F0F2
:101060006985268DEE804FF0180C0026EB832A84CC
:10107000698485F804C02E7729460AF0F7FD0AF046
:10108000FFFDA368002B0ADAE268616823F00043E1
:101090008A422CBF90448844A360A8EB0308638D68
:1010A000B4F81C5113FB0BF39BB2B3FBF5F18EB2FA
:1010B00015FB06F292B2934280F09C84D31A9D48AD
:1010C00040F2E24202FB03F3A3FB000196A3D3E943
:1010D0000023FFF705F820F07F408044E38DAAEB62
:1010E00009091F4494F93930B144B944002B40F246
:1010F000E247A4F82E9007FB05F5C0F2BA844FF43E
:1011000033638D4A8D498E4815F0F5FC404080F3DD
:1011100011884FF0030002DF0027AA46B4F820210F
:10112000B4F81E11874B8848A18542F2107C0CFB55
:1011300002522B442844B3FBF5F301F1060C013AAB
:10114000B2FBF5F2B0FBF5F598B2A4F8C220604509
:10115000B4F81C21A4F8CE00A4F8C650628502DDC4
:10116000401A063880B294F81A31A4F8CA00180759
:1011700044BF0023A4F8C4300221012012F0A2FBD6
:10118000002202218146012006F03CFF4FF4F87254
:101190006E49204606F0C8FE0330C5B26C4B009481
:1011A0002A460121002008F07BFA30F002030CD01F
:1011B0004FF43663604A6749614815F09CFC404033
:1011C00080F311884FF0030002DF5A4BAAFB03ABF8
:1011D000504655A3D3E900235946FEF781FF5E4AE6
:1011E0002369049320F07F46A6FB0223072000FB1F
:1011F0000633BAEB02006BEB0301DFF860E1DFF8C6
:1012000060C1089406944FF47A7200234FF6FE747E
:10121000CDF81CE0CDF814C00394FEF761FF4346FF
:10122000CDE9016000972A460121002008F0AEF9BF
:1012300030F002030CD040F67A333F4A454940482B
:1012400015F059FC404080F311884FF0030002DF95
:10125000B9F1000F40F0C2836FF08B00FFF7EBBADB
:10126000638EE18D94F8F4200B441F4412F00102C8
:10127000BFB240F0CA82B4F8FA30FF1A3B043FF51F
:10128000D1AA04F1340584F8E52004F1F501052222
:10129000284616F051FA2846052106F0D7FF94F8A3
:1012A0003930012260F3050384F8393084F8E821ED
:1012B000FFF7B8BA40F252431F4A2049204815F0C0
:1012C0001AFC404080F311884FF0030002DFFFF763
:1012D000A5BA90F8E50000287FF4E9AAFFF7CEBA96
:1012E000C2F30205E9B207290DD0012606FA01F082
:1012F00010F04E0C7FF4AFAA10F0300F40F0E985EB
:10130000002901F0D08040F662730B4A0B490C486B
:1013100015F0F1FB404080F311884FF0030002DF2D
:10132000FFF799BAAFF300808D49FD1A070000005E
:101330005435002000CA9A3B14AE0100D8AA01001F
:1013400054AA01007FC3C901FF596202981A002004
:101350000DD100004CAF01008D49FD1AB5D0000041
:101360009DFD00000022D4E9190106F013FE81461C
:1013700000287FF453AA02200AF088FC8246002845
:101380003FF44CAAB64806F099FD064600283FF403
:1013900045AA94F8F42069F30002D3B2C3F382099A
:1013A00059EA531984F8F42041F0D08194F8F020E0
:1013B000A4F8F690990784F8F12001F117824B46C2
:1013C00049460522727186F8089073723279D4F812
:1013D000D431718142F003021820D4F8D81132714F
:1013E000F071002B01F0558094F87621920701F1FD
:1013F000508094F8CF21D50701F14B80D4F8E0213B
:10140000934201F08D83002901F06884D4F8DC3127
:101410001A6832601E60C4F8DC613368002B7FF408
:10142000FDA9C4F8E46194F93960FFF7F9B9012026
:101430000AF02CFC064600283FF4F0A9884806F084
:101440003DFD054600283FF4E9A9864B1A68002AAD
:1014500000F0CB860AF03AFC3268D4F814112B79EC
:1014600051600C22C4F814616A71D4F824217E49B9
:1014700094F81A0143F003032B710026A38DEE713B
:10148000A1FB0212C2F38F2294F8281129724B4457
:10149000D4F8D411A5F80920B4F81C21A5F80B2024
:1014A0000633B4F81E21A5F80D209BB2B4F8202114
:1014B000A5F80F2066F30200A4F8F43084F81A01AE
:1014C000A5F81130002900F04E8394F876319B077F
:1014D00000F1498394F8CF31DE0700F14483D4F85A
:1014E000E0319942D4F8D83101F07281002B01F03B
:1014F000D781D4F8DC311A682A601D602968C4F8E5
:10150000DC5100297FF48AA9C4F8E45194F93960C8
:10151000FFF786B9524806F0D1FC064600283FF492
:101520007DA994F93930002B00F1040980F28C85F3
:1015300094F87A3013F0080340F02B8794F80151A7
:10154000002D00F04987027994F8E41042F003027C
:10155000C907027141F16880D4F83821194602F0B8
:10156000040050EA010301F05F8011220323757229
:10157000F27133727371D4F8D431002284F80121EE
:10158000002B00F0E58794F87621920700F1E087C0
:1015900094F8CF21D50700F1DB87D4F8E0219342FE
:1015A000D4F8D82101F0D382002A01F06483D4F862
:1015B000DC311A6832601E60C4F8DC613368002BCD
:1015C00001F0E38094F8F03084F8F13094F8E5000D
:1015D000FFF76DB9224806F071FC064600283FF47B
:1015E0001DA9A38D027994F8F4102B440633A4F8B6
:1015F000FA306FF30001012342F00302082084F85F
:10160000F41032717071F371052204F1F501301894
:1016100016F092F8D4F8D431B4F8FA20A6F80D20D8
:10162000002B00F0318494F87611D4F8D821890782
:1016300000F12C8494F8CF11CD0700F12784D4F861
:10164000E0118B4201F09B81002A01F0BC81D4F8AB
:10165000DC311A6832601E603368C4F8DC61DDE694
:10166000E8350020543500205917B7D10022D4E9BD
:10167000190106F08FFC064600287FF4D3A802204B
:101680000AF004FB804600283FF4CCA8D64806F0B8
:1016900015FC054600283FF4C5A894F8F42066F32D
:1016A0000002D3B2C3F3820656EA531684F8F4203C
:1016B00041F06F8094F8F020A4F8F6609F0784F85A
:1016C000F12001F1C7803346324605216B722E723C
:1016D00069712B79D4F8D4116A8143F0030318207F
:1016E000D4F8D8212B71E871002900F0938794F881
:1016F00076319E0700F18E8794F8CF31D80700F13C
:101700008987D4F8E031994201F0D382002A01F0B0
:10171000EE82D4F8DC311A682A601D60C4F8DC510E
:101720002B68002B7FF47EA86BE00AF0AFFA074627
:1017300000283FF477A8AC4806F0C0FB0546002817
:101740003FF470A8A94B1A68002A00F078850AF0C7
:10175000BDFA3A682B79D4F81411516043F00303B1
:101760000C22C4F814716A712B71A38DD4F8242152
:101770009F4994F81A0133440026EE71A1FB02122E
:10178000C2F38F2294F828112972D4F8D411A5F845
:101790000920B4F81C21A5F80B200633B4F81E214B
:1017A000A5F80D209BB2B4F82021A5F80F2066F310
:1017B0000200A4F8F43084F81A01A5F811300029C9
:1017C00000F0118394F876319F0700F10C8394F8B0
:1017D000CF31DE0700F10783D4F8E0319942D4F825
:1017E000D83101F02980002B01F0BF80D4F8DC3122
:1017F0001A682A601D602968C4F8DC5100297FF44A
:1018000011A8C4F8E451FFF70DB8774806F056FB6D
:10181000054600283FF406A8A38D027994F8F41039
:101820001F44BB1DA4F8FA306FF30001012342F0FE
:101830000302082084F8F4102A716871EB71052204
:1018400004F1F501281815F077FFD4F8D431B4F875
:10185000FA20A5F80D20002B00F0828394F8761171
:10186000D4F8D821880700F17D8394F8CF11C907F7
:1018700000F17883D4F8E0118B4201F06580002AF2
:1018800001F00281D4F8DC311A682A601D602B68EF
:10189000C4F8DC51002B7EF4C5AFB2E794F83121D7
:1018A00094F83001824263D0121AD5077EF5B8AFA2
:1018B00094F8E43013F0010600F060830AF006FAB1
:1018C0000546002800F0818194F8303184F83131E8
:1018D000037F228DC28043F003030922032049467F
:1018E0002B7728716A77EA7705F12000082215F036
:1018F0002EFFD4E95023100C190C060A85F8243069
:1019000085F82360C3F30723C2F3072685F8220076
:10191000080A85F8261085F8202085F8216085F8CA
:10192000270085F82530294608680AF09FF90AF053
:10193000A7F994F8F0C094F8F150FEF769BF0133AD
:10194000A4F8C830FEF777BF0360C4E97500C4F897
:10195000DC01002B7FF401A8FEF7FDBF002D7FF412
:1019600055AA0360C4E97500C4F8DC01FFF756BA54
:1019700094F8492194F84801824200F02C81121A0F
:10198000D3077EF54DAF94F84A31DE0740F1F88574
:101990009D0740F1E9850AF099F90146002800F019
:1019A000148194F8483184F84931037F228DC28034
:1019B00043F003030B77032006220C234A77CB77EF
:1019C000087194F84B01B4F84C21B4F84E31A1F8E9
:1019D000233081F82000A1F82120A5E7012210463C
:1019E000022106F00FFB37E4E835002054350020D3
:1019F0005917B7D105FB113340F2E2429BB2C04800
:101A000002FB03F3A3FB0001BBA3D3E90023FEF712
:101A100067FBA8EB0008FFF761BB05FB113340F241
:101A2000E2429BB2B64802FB03F3A3FB0001B2A360
:101A3000D3E90023FEF754FBA8EB0008FFF7C0B87A
:101A400040F6B423AF4AB049B04815F054F84040CE
:101A500080F311884FF0030002DF2868FFF7F4BA23
:101A600094F8E520002A3FF4C7AA84F8E530FFF790
:101A7000C7BAA26C236CDFF8889203FB1B23A36414
:101A80000FF0CCFF824694F8E400C0F3C2000FF0E0
:101A9000C7FF0AEB000305FB03F39D48A26C94F813
:101AA000281103F5742303F23F23A0FB03034FEA3D
:101AB000934A0AFB06F06B080244963B9A4228BF01
:101AC0001A4607FB01F64FF0000CC4F840A0C4E929
:101AD0001132C4F8ECC088A3D3E90023A0FB0901AC
:101AE0002665FEF7FDFA8B4AD4F82431A2FB0323C6
:101AF0009B0A07FB03F7A8EB00087FA3D3E90023A9
:101B0000A7FB0901FEF7ECFAA5EB0A0A20F07F47D4
:101B1000FFF704BB40F6B4237A4A7B497B4814F0B4
:101B2000EAFF404080F311884FF0030002DF28688D
:101B3000FEF7F6BFA68D96427FF493AA40F2E246E6
:101B400006FB03FE42F2107606FB01E6B4F8C2C0C3
:101B5000013EB6FBFEF6B6B2B4457FF482AA01237D
:101B60002B71FFF789BAD4F8D831002B7FF4C1ACC0
:101B70002960C4E97555C4F8DC51C2E494F8BC315D
:101B800094F8BD219A4200F0748394F8BE2102F0CB
:101B9000070107290CD00120884010F04E0F7EF479
:101BA0003FAE10F0300F40F08B86002900F08D859D
:101BB00040F66273534A5849544814F09CFF404021
:101BC00080F311884FF0030002DF94F8F0C094F81E
:101BD000F150FEF71DBE94F8950194F894219042BF
:101BE000CCD0DFF83891D9F80020002A00F0268503
:101BF00094427EF415AE94F8962102F00F02062A64
:101C000001F2008101A050F822F000BF211D000068
:101C1000751C0000291C00001108000011080000BC
:101C2000110800001108000098073EF5F9AD0AF010
:101C30004DF801460028C8D094F896010B7F032286
:101C400062F30300134384F89601208D0B77182369
:101C50004B77B4F89A31B4F898510A71C880B4F847
:101C60009E21B4F89C014B840F230D848884CA8480
:101C7000CB7759E694F89751002D40F0E086002E7E
:101C8000C0F28B8794F8963194F8A001C4F82451DF
:101C9000062262F30303012284F8282184F8963196
:101CA000B4F89A21002801F03380B2FBF0F313FB63
:101CB00000F3B4F898019BB2984288BF1346A4F889
:101CC0001C3194F81A31B4F89C0194F89621A4F8C8
:101CD0001E010220C2F3001260F3020362F3C30389
:101CE0000139B4F89E2184F8191184F81A31A4F846
:101CF0002021FEF797BD00BF8D49FD1A07000000A7
:101D000000CA9A3B14AE010038AF010054AA01008A
:101D100083DE1B435917B7D1D8AA010054350020E0
:101D2000C548658EE68D06F0C9F8014600283FF4E7
:101D30004CAF0379C9F8004043F003031822427105
:101D40000371B4F898310022A819B4F89A51B4F884
:101D50009C610B81B4F89E310A744D813844B4F80B
:101D6000C6508E81CB810F264FF0FF33CA740A759F
:101D70004B758B75CB750B764B768B76CB760B775D
:101D80004B778B77CE71A4F8C850A1F8110094F866
:101D90009631042060F3030384F8963120460AF05C
:101DA000F1FF94F8F0C094F8F150FEF731BDB4F8AB
:101DB0002CC094457EF4C2AE40F2E24C0CFB03FB17
:101DC00042F2107C0CFB01BCB4F8C2E00CF1FF3C09
:101DD000BCFBFBFC1FFA8CFCE6457EF4AFAE012396
:101DE0002B71FEF7BABED4F8D831002B7FF4FEACCD
:101DF0002960C4E97555C4F8DC51FFE4C2F38200E0
:101E000060F3020384F860304FF4A476FEF765BFF8
:101E1000AE46FEF7F6BDC2F3820C6CF3020384F803
:101E200060304FF4A477FEF7DEBD94F8E530002B68
:101E30003FF4A8A884F8E520FFF7A8B8C4F8E401A7
:101E4000FEF7EFBF41F28C037C4A7D497D4814F0D8
:101E500052FE404080F311884FF0030002DF2868F3
:101E600094F8F410FEF74CBF41F2BB03734A744977
:101E7000744814F040FE404080F311884FF0030096
:101E800002DF2868FEF766BFD4F8D821002A7FF465
:101E9000DEAB3360C4E97566C4F8DC61FFF7BEBA37
:101EA00094F8E530002B3EF487AD84F8E550FEF75A
:101EB00087BD41F2BB03614A6149624814F01BFED1
:101EC000404080F311884FF0030002DF2868FEF7DE
:101ED000B5BD02F00700B4F8C0E1B4F8C411A4F82D
:101EE0005AE00428A4F85E10B4F8C261B4F8C651F0
:101EF00000F0C582062363F3020284F8BE21D4F801
:101F00001491B9F1000F00F0A081D9F80000002869
:101F100000F09B8199F81C304268B4F828C0C4F8DE
:101F2000142143F00303032289F81C304FF0090AFF
:101F30001523A9F806C0A9F820E0A9F8221089F80D
:101F4000042089F81F304946A9F82460A9F82650D2
:101F500089F81DA009F08AFE09F092FEFEF77BBC0D
:101F6000D4F8D821002A7FF48DAC2B60C4E97555D4
:101F7000C4F8DC51002B7EF455AC42E42E4805F049
:101F80009DFF054600283FF420AE94F83131092228
:101F9000013B84F83131427194F939200379002AE8
:101FA000ACBF08220E2243F00303C271082231465F
:101FB0000371104415F0CBFBD4E94E23100C190C1F
:101FC000060A2B73EE72C3F30723A872C2F3072627
:101FD000080A2A726E72A973E8736B73D4F8D4314D
:101FE000002B00F0218194F87611D4F8D8218807CD
:101FF00000F11C8194F8CF11C90700F11781D4F8C2
:10200000E0118B4200F0F384002A00F0BD85D4F883
:10201000DC311A682A601D602B68C4F8DC51002B83
:1020200000F02483B4F8C630A4F8C83094F8F0C0A7
:1020300094F8F150FEF7ECBBE835002014AE010037
:1020400038AF010054AA010004F17B0A53462A4626
:1020500004F5817104F2811010F09CFF51461022AA
:1020600004F19C0015F068FB082204F1940104F1CE
:10207000B50015F061FB94F8930094F8B42094F83F
:102080007A3084F88B5043F0080365F3000042F087
:10209000010284F8930084F87A3084F88C5084F834
:1020A0008D5084F88E5084F88F5084F8905084F8C6
:1020B000915084F89250C4F8AC504946C4F8B050DE
:1020C00084F8B42020460BF06DF8D4F8D431002BFE
:1020D00062D094F87611D4F8D8218D075ED494F8A4
:1020E000CF11C8075AD4D4F8E0118B4200F08D8488
:1020F000002A00F02285D4F8DC311A6832601E60B4
:102100003368C4F8DC61002B00F09C8094F8003147
:1021100094F9396043F0030384F80031FEF780BB83
:10212000D4F8D821002A7EF4DCAE2B60C4E97555C2
:10213000C4F8DC51FEF7DDBE09F0C8FD05460028F5
:102140003EF46CAB0368D4F814215A6094F939302A
:1021500094F8F420C4F81401002BA8BF1146BEF671
:10216000A8AD94F8E5301146002B3EF4A2AD84F8FA
:10217000E590FEF7A2BD1968C4F8E011002A7EF4CC
:10218000E1AB1A68026018600368C4E97600002BAE
:102190007EF4E3ABFEF7DFBBD4F8D821002AAAD146
:1021A0003360C4E97566C4F8DC61ACE7F2457EF4DF
:1021B000BBAD01232B71294609F058FDD4F8145109
:1021C000002D00F09D842868002800F09984436861
:1021D000C4F8143101232B71294609F047FD09F099
:1021E0004FFD94F93960FEF71BBB1C60FFF732B955
:1021F00075457EF40EAC01230B7109F037FDD4F860
:102200001451002D00F0B0842868002800F0AC8440
:102210004368C4F8143101232B71294609F026FDC7
:1022200009F02EFDFEF7FEBAD4F8D821002A7FF47B
:10223000EEAE2B60C4E97555C4F8DC51EFE61C60C6
:10224000FFF785BAC4F8E46160E740F63873C84A1E
:10225000C849C94814F04FFC404080F311884FF042
:10226000030002DFD9F80000B4F85AE0B4F85E10B9
:1022700050E694F8CCE194F8CD1171453EF4D0AA23
:1022800094F8CE1101F00300032800F2B78501A6EF
:1022900056F820F0A52200001108000011080000E7
:1022A0000D230000B54805F009FE014600283FF463
:1022B0008CAC94F8CE5194F8CF0194F8D02194F8D6
:1022C00060C0012363F30105EBB2C3F38206C0F3E0
:1022D0004000C3F3421360F3C30C66F302020879B3
:1022E00084F8CE5163F3C50284F8D02140F0030096
:1022F0000325162284F860C00871CA710E724B72F1
:102300004D71002220460AF03DFD8BE6C1F38200AC
:10231000860784F8CDE140F12085022060F3840136
:1023200084F8CE1194F8CE114809860740F10C8547
:10233000022060F3471184F8CE1194F8CE1194F87E
:1023400060E094F861C094F8F400C1F382060EF0E6
:10235000070EB64508BF00260CF0070C490966F3C6
:1023600084008C4508BF002161F3471094F8CF61C9
:10237000C1B241F00101C6F3800060F34101023DAA
:10238000062084F8F15084F8F41084F8F200FEF787
:1023900059BA494620460AF005FFD4F8D431002B3B
:1023A00063D094F87611D4F8D82188075FD494F8D4
:1023B000CF11C9075BD4D4F8E0118B4200F033830E
:1023C000002A00F06B83D4F8DC311A6832601E609A
:1023D000C4F8DC61336896E604F17B094B462A4673
:1023E00004F5817104F2811010F0D4FD49461022E9
:1023F00004F19C0015F0A0F9082204F1940104F105
:10240000B50015F099F994F8932094F8B41094F865
:102410007A3084F88B5042F0010265F3000143F0FA
:102420000803012084F8932084F8B41084F87A30EB
:1024300084F88C5084F88D5084F88E5084F88F5036
:1024400084F8905084F8915084F89250C4F8AC50BD
:10245000C4F8B05032797071D4F8D43142F003022C
:1024600005213271F171002B9BD1D4F8D821002ABB
:10247000A9D13360C4E97566C4F8DC61AAE7B4F891
:10248000C801002840F0148184F8BD31A4F8C800C8
:1024900035E500297EF4BAAF3360C4E97566C4F847
:1024A000DC61FEF7BABF354805F008FD00283EF4B0
:1024B000D2A994F8BE31B4F8C211B4F8C621A4F878
:1024C000D210A4F8D42066F30203027984F8BE3156
:1024D00009264671D4F8D431457242F0030245F022
:1024E0001B064FF0140C027145F0480245F001053F
:1024F0008181D4F8D81180F807C006728272827385
:10250000C572C573002B00F0CA8094F87621950738
:1025100000F1C58094F8CF21D20700F1C080D4F833
:10252000E021934200F08483002900F0F583D4F881
:10253000DC311A6802601860C4F8DC010368002B03
:1025400000F0B881B4F8C630A4F8C830FEF783B9FB
:10255000D4F8D821002A7FF42AA83360C4E975662C
:10256000C4F8DC61FFF72AB840F62D53FFF722BB11
:1025700014AE010038AF010054AA0100E835002074
:10258000CE4805F09BFC00283FF41FAB94F849218E
:1025900094F84A31013A84F84921027943F0010361
:1025A000062184F84A3142F003024171D4F8D43153
:1025B00002710C216FF00E02C1710172427205218D
:1025C0004FF0FF328172C2720273002B00F0A980BB
:1025D00094F87621910700F1A48094F8CF21D207D6
:1025E00000F19F80D4F8E0219342D4F8D82100F084
:1025F0005483002A00F06A83D4F8DC311A68026040
:102600001860C4F8DC010368002B7FF40BADC4F83C
:10261000E40107E5002A7FF47CA82960C4E9755528
:10262000C4F8DC51FFF77CB80D23F3713572022337
:10263000FEF7A0BFC4F8E451FEF75EBC94F8962103
:1026400002F00F02062A00F2DD8301A050F822F00A
:10265000211D0000751C0000291C0000210800003D
:10266000210800002108000021080000C4F8E451FE
:10267000D8E41A68C4F8E021002D7EF4C7AB1A68CC
:10268000026018600368C4E97600FEF7C7BBDA7918
:10269000032A3FF476AD0A2A7EF44EA971E500299B
:1026A0007FF445AF0360C4E97500C4F8DC0145E779
:1026B0006CF30202B4F8CA3184F8BE21A4F8C20156
:1026C000A4F8C8C1A4F8C63119E47C4805F0F6FBAB
:1026D00000283FF47AAA94F8BE31B4F8C251B4F895
:1026E000C621A4F8D2500121A4F8D42061F302033A
:1026F000092284F8BE3142710279D4F8D43185813F
:1027000042F003021426C172C173002502711B211D
:102710004822C6714572017282728273002B7FF467
:1027200057AFD4F8D821002A7FF466AF0360C4E91C
:102730007500C4F8DC0166E71A7902F00302032A87
:1027400000F02B81C4E97633FEF760BBA38D2B44E8
:102750000633A4F8F63009F0B9FADAF80030D4F804
:1027600014215A60C4F814A109F0B0FA0368D4F82F
:1027700014215A6094F8F430C4F81401C3F38209A8
:10278000B4F8F6105B09FEF71CBEC4F8E461FEF76E
:1027900019BFA38D1F44BB1DA4F8F63009F096FAAB
:1027A000D8F80030D4F814215A60C4F8148109F024
:1027B0008DFA0368D4F814215A6094F8F430C4F800
:1027C0001401C3F38206B4F8F6205B09FEF77DBF5F
:1027D0000A68C4F8E021002B7EF48BAE0B682B60F6
:1027E0000D602968C4E97655FEF78BBE09F06EFAD4
:1027F000228D8AF81C9094F86030AAF80620C3F362
:1028000002038AF81D3094F86130DAF80000C3F34F
:1028100002031C228AF81E3051468AF8042009F06F
:1028200025FA09F02DFA94F8F430B4F8F610C3F351
:1028300082095B09FEF7C5BD0A68C4F8E021002BD8
:102840007EF4D4AF0B682B600D602968C4E976551F
:10285000FEF7D4BF09F03AFA228D88F81C6094F88C
:102860006030A8F80620C3F3020388F81D3094F8FE
:102870006130D8F80000C3F302031C2288F81E3030
:1028800088F80420414609F0F1F909F0F9F994F8C3
:10289000F430B4F8F620C3F382065B09FEF715BFE7
:1028A0000B7903F00303032B00F01A81C4E97611BE
:1028B000FEF71FBEC4F8E40144E600BFE83500207F
:1028C00002F00702B4F8C001B4F8C411A4F85A0029
:1028D000042AA4F85E10B4F8C291B4F8C66100F0FE
:1028E000F58094F8BE31062262F3020384F8BE310B
:1028F000D4F81451002D00F0DA802868002800F088
:10290000D6802B7F4268C4F8142143F003030921C9
:10291000228D2B776977B4F85A30B4F85E10EA80CC
:102920002B840322152369842A71EB772946A5F8A5
:102930002490EE8409F09AF909F0A2F994F8F0C015
:1029400094F8F150FDF764BF1968C4F8E011002A4B
:102950007EF498AF1A682A601D602B68C4E976552A
:10296000002B7DF45FAFFEF74CBF0B7903F0030340
:10297000032B00F0BD80C4E97611FEF737BF19685C
:10298000C4F8E011002A7EF462AE1A6832601E605C
:102990003368C4E97666FEF741BDDA79032A3FF46D
:1029A0006EAE0A2A7FF4CEAE69E61968C4F8E0116B
:1029B000002A7EF496AA1A682A601D602B68C4E972
:1029C0007655FEF796BA1A7902F00302032A00F050
:1029D000D581C4E97633FEF73ABE1A7902F00302D4
:1029E000032A00F03981C4E97633FEF77ABA196810
:1029F000C4F8E011002A7FF40AAB1A682A601D604F
:102A00002B68C4E97655FFF70ABB1968C4F8E011D2
:102A1000002A7FF470AB1A6832601E603368C4E924
:102A20007666FFF770BB1968C4F8E011002A7FF4DE
:102A3000CAAC1A6832601E60C4E97666CAE4CB4844
:102A400005F03CFA014600283FF4BFA8037943F0A3
:102A500003030B71112003220F23C8714A710B72FB
:102A600094F897314B72002220460AF08BF994F8C3
:102A7000943184F895310023C9F8003094F8F0C0FF
:102A800094F8F150FDF7C4BE1A7902F00302032A4C
:102A900000F0DA80C4E97633FEF7F4BE1A7902F06A
:102AA0000302032A00F02C81C4E976338BE440F65C
:102AB0003873AF4AAF49B04814F01DF8404080F376
:102AC00011884FF0030002DF28681AE7B4F8C82124
:102AD000002A40F0298184F8BD31A4F8C82007E716
:102AE000CB79032B3FF47AAE0A2B7FF4DFAE75E689
:102AF000CB79032B3FF4A6AE0A2B7FF43CAFA1E6C3
:102B000041F29E039A4A9B499B4813F0F4FF4040D0
:102B100080F311884FF0030002DF2868FFF757BBEE
:102B20001A68C4F8E02100297EF470AC1A6832609B
:102B30001E60C4E97666FEF770BC1A7902F00302E3
:102B4000032A00F0A280C4E97633FFF7D4BA1968EB
:102B5000C4F8E011002A7EF42AAD1A6832601E60C3
:102B6000C4E97666FEF72ABD41F29E03804A814998
:102B7000814813F0C0FF404080F311884FF00300FC
:102B800002DF2868FFF744BB1A7902F00302032A28
:102B90006AD0C4E97633FFF73ABA744805F08EF983
:102BA000014600283FF411A80379182243F00303DB
:102BB00003714271B4F89831B4F89A210381B4F8E2
:102BC0009C314281B4F89E2183811023C281C3715C
:102BD00094F8A0310374B4F8A231B4F8A421A0F899
:102BE0001130B4F8A631A0F81320B4F8A821A0F849
:102BF0001530B4F8AA31A0F81720B4F8AC21A0F829
:102C00001930B4F8AE31A0F81D30A0F81B202A46C8
:102C100020460AF0B7F894F8963194F8F0C094F88A
:102C2000F150052262F3030384F89631FDF7F0BDFD
:102C30001A68C4F8E02100297FF479AC1A680260B0
:102C40001860C4E9760079E4DA79032A3FF482AEA9
:102C50000A2A7FF41FAF7DE6DA79032A3FF4ABAE90
:102C60000A2A7FF4C0AEA6E6DA79032A3FF4C5AE9D
:102C70000A2A8ED1C1E61A7902F00302032A00F073
:102C80008F80C4E97633FEF792BCDA79032A3FF4E9
:102C9000C2AE0A2A7FF457AFBDE61968C4F8E01146
:102CA000002A7FF4A9AC1A6802601860C4E97600B3
:102CB000A9E40B68C4F8E031002A7EF42AAD0B6861
:102CC0002B600D60C4E97655FEF72ABD1A7902F033
:102CD0000302032A6CD0C4E976338DE41A7902F03A
:102CE0000302032A6BD0C4E97633FEF78FBB0B795E
:102CF00003F00303032B70D0C4E97611FEF709BD7E
:102D0000DA79032A3FF495AE0A2A7FF4CDAE90E635
:102D1000A4F81C21FEF7D5BF1A7902F00302032A9A
:102D200054D0C4E9763302E494F8BE11B4F8CA0171
:102D3000A4F8C221002363F3020184F8BE11A4F8B1
:102D4000C831A4F8C601D3E5C6071FD5012060F33A
:102D5000471184F8CE11FFF7F0BAC60744D5012019
:102D600060F3840184F8CE11FFF7DCBAE835002067
:102D700014AE010038AF010054AA0100DA79032A29
:102D80003FF403AE0A2A7FF424AEFEE510F00400FF
:102D900018BF042060F3471184F8CE11FFF7CDBAB5
:102DA000DA79032A3FF4D9AE0A2A7FF46AAFD4E66F
:102DB000DA79032A3FF477AF0A2A8CD173E7DA79FC
:102DC000032A3FF4B3AE0A2A8DD1AFE6DA79032A9B
:102DD0003FF434AF0A2AA4D130E7CB79032B3FF478
:102DE0006EAF0A2B88D16AE710F0040018BF0420E8
:102DF00060F3840184F8CE11FFF794BA40F6DC73D7
:102E0000FEF7D8BE40F65E63FEF7D4BE00000000B9
:102E10002DE9F04F037F0E6897B08A461546366855
:102E20000A96C3F3801300F11E010446062214A87B
:102E30008DF847302E6814F07FFC9AF812000C9041
:102E4000FF280DF1480900F083804A460DF1470143
:102E50000DF04EFA9DF847700237FFB28DF84770BB
:102E6000236894F81C800B930A9B4FEAD81803F14F
:102E7000710B404659464B4607F001020AF044FEEA
:102E800000284BD196F8D6200D9067F3410286F8C2
:102E9000D6204946062206F1DD0014F04DFC96F8D6
:102EA000D62068F30002594686F8D62006F1D700EE
:102EB000062214F041FC05F10408032204F12E015E
:102EC00005F1080014F038FC05F11807042204F19C
:102ED0002A01404614F030FC0522384604F13A013C
:102EE00014F02AFC3846052105F0B0F994F83F109B
:102EF0006F7F00F03F0060F30507C1F30402AA777B
:102F00006F77A78EEF810128D2B2BFB206D91B32EC
:102F100002F01F020B2A01D80D9B0FBB95F8203041
:102F2000E668DDE90A10002262F3000301274A6126
:102F300085F820302146277108F098FE3146306828
:102F4000377108F093FE08F09BFE17B0BDE8F08FD4
:102F50004846062214A914F0EFFB9DF847707FE75E
:102F6000DAF8002096F8E400536094F8372094F8DB
:102F70003630490943EA022361F3C5002B82638E90
:102F800086F8E4000E930EF049FD0D9096F8E400EB
:102F9000C0F3C2000EF044FD0D9BDFF8F4C294F8BC
:102FA00031102A8A40F2E24B0BFB07F7184407FB6B
:102FB00000F000F5742000F23F20ACFB00C04FEAA7
:102FC000570C800C0BFB01F1ACF1960C6862C5F854
:102FD00028C0A963218FA44BADF83E1042F2107CAB
:102FE0000CFB0171A1483B4402F1060CB3FBF7F363
:102FF0000139B1FBF7F1A6F8C21099B26145384426
:10300000A6F8CE10B0FBF7F0A6F8C60002DD891ACC
:10301000063989B20422A6F8CA1006F1E800414632
:1030200014F08AFB4FF4807394F81CB0A3830A9BBE
:1030300093F826000DF08AFECBF3401B5FFA8BF36A
:1030400001460D9304F12B000622002900F0E380D5
:1030500004F1240114F070FB0C9BFF2B04F12500FC
:1030600000F0DC8014A9062214F066FB9DF84730BE
:10307000A3774946062204F11F0014F05DFB96F881
:10308000E430E9892A8AA286C3F3C20384F838307F
:10309000BDF83E30E386618630460AF0B3F921463A
:1030A000A881E080DAF804400B9808F0DFFDAB89D6
:1030B000E3801B2323710D9BD4F80090002B40F07C
:1030C000BA8084F81CB02146484608F0CFFD08F0CD
:1030D000D7FD95F84500B5F84080B5F8424001218C
:1030E00000F007000EF0BCFA04EB0803814603F57C
:1030F000E1735F4800244B443122A3FB0001C6E981
:103100000224746056A3D3E90023FCF7E9FFDAF840
:103110000C200E996B6A20F07F4040F2E24808FBD9
:1031200001283061224602210120FF1A04F06AFFC3
:103130000A9D284609F066FC821CD2B22046009502
:103140004C4B012106F0ACFA08F2B2480128A8EB7A
:1031500009087BD00A9B93F82430DB0763D4304600
:103160000AF050F9DFF808B1A7FB0B453CA3D3E9FF
:103170000023074629462046FCF7B2FF3E4A069642
:1031800020F07F49A9FB0223072101FB093340F20C
:10319000AB11DAF808C00891384907913849059110
:1031A000A01A65EB03013369049300254FF47A728A
:1031B0000023ACF13A040395FCF792FF28A3D3E96E
:1031C00000230290A8FB0B01CDF80490FCF788FFC8
:1031D000033720F07F40FFB2009023463A4628464E
:1031E000012106F0D3F930F002030CD040F2AD1308
:1031F000244A2549254813F07EFC404080F311887D
:103200004FF0030002DF01221046022104F0FAFE13
:1032100017B0BDE8F08F14F09AFA1DE706220021DE
:1032200014F095FA22E70023012200931846114674
:1032300006F036FA93E76B7F43F040036B77404626
:103240000CF0CAFE0123E88323773CE708F0C6FDB3
:103250000A9B83423FF47EAF0CF07CFD7AE700BF0F
:103260008D49FD1A070000007FC3C901FF596202A2
:1032700000CA9A3B81FD00008D49FD1A25FD000022
:103280009DFD000028B001004CAF010054AA0100D0
:1032900083DE1B4330B5234D0FCD89B003AC0FC483
:1032A0002B682360204CFF2302A90020029302F028
:1032B000D5FA2278029B9A420FD10021084602F0EB
:1032C000DFFA011E1EDA194813F015FC23780BB93A
:1032D000062323702378013B23702178144813F0D0
:1032E0000AFC23788DF80C30002312490093012248
:1032F00003A802F0DDFD014640B10F4813F0FBFBCF
:1033000009B030BD0D4813F0F6FBE6E72378013332
:10331000DBB2062B08BF2070094818BF237013F0DA
:10332000EAFBEDE7B0A601007744002010B70100EA
:1033300033B7010018A7010049B7010027B7010002
:103340006FB7010070B503788AB004460E4607AD2A
:10335000032B20D8DFE803F002191B1D1149284672
:1033600014F0B4F963780493A3780393E378029399
:1033700023790193637900930595A3790A4A1E2165
:10338000304613F0C5FB0AB070BD0849E7E70849AD
:10339000E5E70849E3E7084A0A21284613F0B8FBA5
:1033A000E0E700BF91B70100BAB7010098B701008C
:1033B0009FB70100A9B70100B3B7010030B50546BA
:1033C00089B021B10D4813F096FB09B030BD0C4C0B
:1033D00022780132D2B222702278052A02D8094816
:1033E00012F0CCFB284614F072FF6946FFF7AAFFE3
:1033F000217805486A4613F07EFBE6E7DDB7010059
:103400007644002018280020FDB7010010B588B0D0
:103410000C4614F05CFF6946FFF794FF22460B4C04
:103420000B48694613F067FB2378012B07D1094B42
:103430001A7822B1002208481A7012F09FFB2378F4
:10344000013BDBB2237008B010BD00BF7644002002
:1034500011B80100784400201828002010B50C464F
:103460008AB014F034FF02A9FFF76CFFE3880193E0
:10347000A388009322886388034802A913F03BFBCA
:1034800001200AB010BD00BFE8B8010070B58AB0D5
:1034900015461E460C4614F01AFF02A9FFF752FF0C
:1034A00000962B46224602A9024813F024FB0AB0DC
:1034B00070BD00BF22B901002DE9F7430746002087
:1034C00002F0EEF8804638B10146374813F013FB9E
:1034D000404603B0BDE8F083344803F069F834484F
:1034E00013F009FB3349344816F090FC324812F0CF
:1034F00045FBFF2400214FF4A47012F071FE01A9D6
:103500000020019402F0AAF9019B062BF2D12B4D69
:10351000DFF8C0902C78E4B22B78062B1AD1002F5C
:10352000D6D0013FFFB23946254813F0E4FA2548CA
:1035300013F0E1FA012389F8003099F800301BB943
:10354000214813F0D8FAE7E700214FF4A47012F0F5
:1035500047FEF2E72B78A3421BD02C78E4B2DBE7DE
:10356000013EB6B24FF4A470002112F039FE2B7860
:10357000A34211D1002EF3D1144813F0BCFA02F08B
:10358000C9FC064658B10146114813F0B4FAB046DA
:103590009EE741F63806EAE7002EBDD1ECE7064883
:1035A00012F0ECFAB8E700BF32B801008801002041
:1035B00052B80100953200001828002076440020FF
:1035C00069B8010083B801009FB80100B2B80100DA
:1035D000C7B80100784400200B6801330B60014B31
:1035E0001B6818479C010020014B1860704700BF02
:1035F0009C01002007B50023019302460B460348B7
:1036000001A900F0F7F803B05DF804FBD93500001C
:1036100030B585B0CDE901010446002501A9054872
:10362000039500F0E7F8DDE902309842B8BF255471
:1036300005B030BDD16A01002DE9F84FB0F81890FF
:1036400019F0080804460DD001290CBF49F01009F3
:1036500049F02009A0F8189082F31188BFF36F8F0A
:10366000BDE8F88F09F00709022907D1204613F0B9
:103670005CFA0028F0D00128238B4AD16769238B9C
:10368000002F15DA2568C4E9008823F0070343F00A
:10369000010323830026238B03F0070ACA4502D0C7
:1036A000A168002956D10DB9002E6DD0002152E03D
:1036B00003F00701481F01281CD823F0070306293F
:1036C00025689BB2C4E900880AD13DB1618B2846C8
:1036D0000068013189B20028FAD1618343F0020306
:1036E0002383204613F021FA0028D3D0238B43F004
:1036F0002003CEE704290AD123F0070399B22183DE
:10370000204613F012FA10B141F020012183002568
:10371000C0E7032809D1216923F007030E6843F0AD
:103720000603238300252F46B5E7042806D1216927
:1037300023F007034E6843F00403F2E7052806D19F
:10374000216923F007038E6843F00503E9E70025AC
:103750002E46E8E7012143F00803238382F3118812
:10376000BFF36F8FF9B985BB16B121492046B04729
:103770004FF02003EFF3118283F31288BFF36F8FB2
:10378000238B23F008032383238BD90627D523F02B
:10379000100323830121B4F8189009F007090029C8
:1037A0007FF462AF58E7A1680029DCD0D1F800901F
:1037B000D1F804B03B4652462046D847B9F1000F35
:1037C000D1D04946D9F80090F2E7D5F800902946C3
:1037D0003B465246204613F0C4F94D46C3E713F06A
:1037E00020011EBF23F0200323830221D3E700BF63
:1037F0008F6B01002DE9F04F93B08A4603909346FA
:103800001C4600259BF8000008B928461AE3252825
:103810000BF1010707D05146039B98470028C0F2DF
:103820001183013502E2182200210CA813F08FFF4A
:103830009BF80130252B7CD00022CDE90422BC4628
:1038400010469146164690461746964663461CF823
:10385000011B2B2900F09F8000F29580202900F0A9
:103860009D80232900F09D802FB19DF838706EF364
:1038700082078DF838702EB19DF8386068F3C30662
:103880008DF8386028B19DF8380069F304108DF880
:103890003800049828B19DF8380040F020008DF8D9
:1038A000380032B19DF83820059860F386128DF803
:1038B00038209DF8382002F04400442803D16FF3EB
:1038C00086128DF838209DF838202A2942F080028F
:1038D0008DF8382040F081805A1C9DF8393043F033
:1038E00001038DF8393013782E2B9DF839300CBF39
:1038F0000121002161F341038DF8393079D15378EA
:103900002A2B6FD0013200210A26104610F8013B05
:10391000A3F13007092F40F293809DF838301091C1
:10392000C3F3400040EAD17161F341038DF83830B0
:103930005FE00BF102078DF83B309DF83930DE0770
:1039400040F11B8154F8049BB9F1000F07DA9DF890
:10395000382042F004028DF83820C9F100095807D8
:1039600040F11481234653F8048BB8F1000F80F224
:1039700027819DF839206FF341028DF839201C46CC
:103980004FF0FF3807E12D290ED030297FF46CAFBE
:10399000012205925AE70126B04657E701208146E9
:1039A00054E70123049351E70127BE464EE70CFB81
:1039B000010130393246164616F8010BA0F13007E6
:1039C000092FF4D993428ED09DF838300F91C90F4A
:1039D00061F341038DF8383085E71A4600214FF036
:1039E0000A0CE8E79DF8393043F004038DF83930CC
:1039F0000232174617F8013B6A2B47D025D84C2BCB
:103A000050D0682B2ED0174617F8012B8DF83B208D
:103A1000672A9DF8393060D8652A55D2582A00F0B7
:103A200098804CD8412A4FD002D3453A022A4BD92C
:103A30009DF8383043F001038DF8383000236AE0F8
:103A400006FB0131303902465FE7742B26D07A2B12
:103A500020D06C2BD7D153786C2B9DF8393013D1F3
:103A6000042105E05378682B9DF8393006D10121F7
:103A700061F3C6038DF83930971CC5E7022262F363
:103A8000C6038DF83930BFE70322F8E79DF83930D7
:103A90000522F4E79DF839300622F0E79DF8393029
:103AA0000722ECE7BDF8383023F4F04323F002039B
:103AB00043F4804343F00203ADF83830A4E7632AAF
:103AC00047D012D8612AB3D19DF83A30042262F36C
:103AD00002038DF83A3001231DE0702A2CD024D83F
:103AE0006E2A3AD035D8692AA2D19DF83A10012021
:103AF00003F0780360F30201402B8DF83A1002BF07
:103B00009DF8381041F001018DF83810632A95D1E5
:103B1000003318BF01239DF83820C2F340010B4346
:103B200063F341028DF8382007E7752A11D0782A0F
:103B30000FD0732A7FF47CAF9DF83A20032113F055
:103B4000780F61F302028DF83A2014BF012300239D
:103B5000E1E79DF83A100220CAE79DF83A2003F009
:103B60007803A3F1400C032161F30202DCF10003AE
:103B70008DF83A2043EB0C03CDE79DF93820002A5D
:103B8000B4BFDDF83C904FF0FF39E8E699077FF5C8
:103B9000F7AEDDF840809DF839200023CDE90F33E2
:103BA0009DF83A3003F00703012BC2F3C3023FD163
:103BB000D31E042B14D8DFE803F0050D0D131300FA
:103BC0001C46E8E7234653F8040BC117CDE90C0166
:103BD0001C461CE0073424F00703F3E80201F5E774
:103BE0002346012A53F8040B4FEAE071CDE90C019A
:103BF0001C4605D19DF830300C9300230D9306E050
:103C0000022A04D1BDF93000C117CDE90C019DF89D
:103C1000383013F003063FD03B465A4651460398CE
:103C200013F054FB0028C0F20D810544BB46E9E5C2
:103C3000022B20D1D31E042B0ED8DFE803F003099A
:103C4000090D0D0020680C900021231D0D91BFE788
:103C5000E31D23F00703C0E72346012A53F8041BA2
:103C60000C914FF000010D911C46C3D0022ACED119
:103C7000BDF83030C0E7042B07D1E31D23F0070463
:103C8000F4E80201CDE90C01C1E7032BBFD12346C3
:103C900053F8041B0C919BE79DF83B006E2800F045
:103CA000A9803DD8632872D022D825283FF4B3AD2F
:103CB0005828BBD10DF12E0300930EAA06ABDDE907
:103CC0000C0113F0B6FA8346B8F1000F0DF12E0087
:103CD0000CDB9DF83820A0EB0B036FF386129845A0
:103CE0008DF8382002D9A8EB03030F93804646E0F5
:103CF000642801D0692899D11A0779D413F0100FDC
:103D00000CBF00262026DDE90C23002A73F10001F8
:103D1000D0DA524263EB4303CDE90C232D26C9E7E9
:103D2000732820D01BD86F28C4D070287FF47EAFB2
:103D30000C98002873D00DF12E0300930EAA06AB49
:103D4000314613F076FABDF83A3003F0EF0343F44E
:103D5000F04343F010038346ADF83A30B4E77528DA
:103D6000A8D07828A5E7B8F1000FDDF830B00ADB5D
:103D70004146584613F0BBFC0BEB00080026BBF194
:103D8000000F0BD152E7584613F0AAFCF4E70C9B46
:103D90008DF818300DF119080DF1180BA8EB0B0375
:103DA00006B101339DF83A20D0063ED502335206C3
:103DB0000F9948BF109A0B4448BF9B18B9F1000FE8
:103DC0004DDD9DF83820A9EB0309C2F3800304936D
:103DD000002B44D1500638D546B151463046039B9E
:103DE000984700282EDB049B01351E4630232DE02A
:103DF0002B2688E70C9B072A3FF618AFDFE802F076
:103E00000D04060D08080D0D1D700FE71D800DE750
:103E10002846E917C3E9000108E71D6006E7DFF857
:103E2000C8800646A8F1050BB8E7110748BF013363
:103E3000BDE7184604935146039B984700284A461D
:103E4000049B05DA13B0BDE8F08F20234A464D44A9
:103E5000002AA5EB020102F1FF39EADC0D4636B17A
:103E600051463046039B98470028EBDB01359DF80F
:103E70003A30D90601D41A0706D551463020039BA3
:103E800098470028DEDB01359DF83A30DB0607D580
:103E900051469DF83B00039B98470028D2DB013533
:103EA0000F9E2E44731B002B16DC43465A46514688
:103EB000039813F00BFA0028C4DB0544A944A9EBCE
:103EC0000503002B7FF7B2AE51462020039B984795
:103ED0000028B7DB0135F2E751463020039B9847B5
:103EE0000028AFDB0135DDE75AB90100F8B5064619
:103EF0004FF02003EFF3118583F31288BFF36F8F28
:103F0000094B1C685CB1094FD4E90132002E08BF8F
:103F100013460BB1387898472468002CF4D185F308
:103F20001188BFF36F8FF8BD2828002030280020AB
:103F30001FB50F4B1A68BAB901221A600D4A07CA99
:103F400001AB83E807000C4A4AB193E8070013F07D
:103F50001DFC002005B05DF804EBFFF7C7BF82F33E
:103F60001188BFF36F8FF4E705B05DF804FB00BF65
:103F7000A0010020302800208D77010070B588B0A6
:103F80006D4601460646284613F0B7F995E8070046
:103F9000174C84E80700207838B3164B00211960CD
:103FA000731C0DD014484FF400430021E3FB0201C1
:103FB000124A0023FCF794F80121301A16F0B0F8E9
:103FC00011F0DAFE0120FFF791FF94E8070005AB3E
:103FD00083E807000A4A1AB193E8070013F0C3FB0D
:103FE000FFF7A6FF12F048F8207808B070BD00BFB8
:103FF00030280020A00100203F420F0040420F0067
:1040000067770100F0B5284E07460C460FCE8DB0FD
:1040100001AD0FC50FCE0FC596E8070085E8070074
:10402000002F3CD0002C3CD0381F214602461034D3
:104030004B780D781B0443EA0563CD782B438D78CC
:10404000043143EA05238C4242F8043FF0D1174C77
:1040500004218A07036918D14FEA33631A0EA55C5D
:10406000DAB2A25C42EA0562C3F30745C3F3072351
:10407000655DE35C42EA054242EA03220CAD21F0B1
:1040800003032B4453F82C3C534050F8042F0131C8
:1040900053402C290361DCD101200DB0F0BD38461E
:1040A000FBE72046F9E700BFC4A601005BB90100A9
:1040B0002DE9F043154689B00746002859D000295C
:1040C0005AD0002A5AD010230A466846194613F0DF
:1040D00019F929466846DFF8A89013F02BF905F185
:1040E0001006C846A0356C466A4610231178013B7D
:1040F00019F8011002F8011BF8D1684613F05FF9B6
:10410000694604A813F094F901A905A813F090F9E1
:1041100002A906A813F08CF903A907A813F088F9DF
:10412000102319460DEB0302684613F0EBF83146F5
:104130006846103613F0FEF8AE42D4D1102623782C
:10414000013E18F8033004F8013BF8D1684613F03B
:1041500036F92946684613F0EDF8102319466A46E9
:10416000384613F0CFF868461022314613F0D7F8DE
:10417000012009B0BDE8F0830846FAE71046F8E7E9
:104180005BB90100014910220A60704710ED00E0A0
:1041900072B6404080F31188BFF36F8FBFF34F8F2B
:1041A00030BF62B6BFF36F8F704700BF72B6494031
:1041B00081F3118820BF80F3118862B6704700BF79
:1041C00043B2002B08DB012200F01F0002FA00F0CE
:1041D0005B09024A42F82300704700BF00E100E09B
:1041E00043B2002B0DDB01225B0900F01F0002FA35
:1041F00000F02033034A42F82300BFF34F8FBFF390
:104200006F8F704700E100E04209054B00F01F008E
:1042100053F82220012303FA00F01040704700BF3A
:1042200000E100E043B2002BA8BF03F1604301F1BD
:1042300001014FEA4111AEBF03F5614300F00F00E9
:10424000034BC9B2ACBF83F800131954704700BFC9
:1042500014ED00E008B572B6044B986918B100225D
:104260009A6115F07EFC62B608BD00BFD8430020FD
:1042700030BFFFF7FDBF00BF0F4A08B50F4B22F05C
:104280007F029A60BFF34F8FBFF36F8FD3F8882000
:1042900022F47002C3F88820EFF3148323F00403A0
:1042A00083F31488BFF36F8F11F016F912F02CF816
:1042B00000F0D2F911F01AF90000000000ED00E062
:1042C000094A0A4993680968D967094998674B6898
:1042D00043F080534B60002383F31188BFF36F8F4B
:1042E0009368D86F704700BFD84300200CB7010017
:1042F00000ED00E012498A684FF030001044EFF3FF
:10430000098C80E8F01F202080F31288BFF36F8FA4
:104310000C4F4FF00066CA698A603E60906F0023C0
:10432000936780F3118804B5104600F0D7F9BDE813
:10433000044002F1300090E8F01F8CF309887047C8
:10434000D843002004ED00E01EF0040F0CBFEFF393
:104350000880EFF30980816911F8021C0229FFD05F
:1043600001B513F0A4F901BD42F8203C009B42F8CE
:104370001C3C0A49019B42F8183C029B42F8143C41
:1043800021F001014FF0807342F8043C42F8081C10
:104390000023203A02658367704700BFCB6C0100A1
:1043A0000B4B0246986890B112F1160F806E05D043
:1043B000A0F12003934206D8824204D281422CBF4E
:1043C0000021012100E00021002908BF00207047E2
:1043D000D843002008B5094B98600D46144600F0FC
:1043E0007DF9204685F30988002163B681F31188A1
:1043F000BFF36F8F0022002312F067FCD843002028
:1044000001B572B60B4A906900281EBF0021916168
:1044100015F0A7FB62B6EFF30580A0F110004FEA9C
:10442000C0000549014409C99847BDE80140034956
:1044300008470000D84300201CA5010041440000AB
:10444000044B9968D869884203D003494FF08052E1
:104450000A607047D843002004ED00E038B5194BDE
:1044600014469A6A9A6A9A6A0546900719D5586B53
:104470009A6A120615D519B1996A21F080019962DC
:104480009A6A9A6A9A6AD1060ED49B6A9A070BD4E2
:1044900000200C498B6A43F0FF038B6200232370DA
:1044A00038BD6FF01500EBE7064B5B681B05EFD5D9
:1044B0002946FFF775FF0028EAD080F3098802201B
:1044C000E7E700BF00ED00E00D4B9A6A9A6A9A6A2E
:1044D000920508D59A6B9A6A120404D518B19A6AA3
:1044E00022F400429A62064B9A6A9A6AD20558BF31
:1044F0009A6A9A6A002042F47F429A620870704772
:1045000000ED00E0074B9A6A9A6A9A6A9A6A9A6A78
:104510009A6A9A6A6FEA02426FEA12429A6200202D
:10452000704700BF00ED00E070B53F4B5B688AB09C
:10453000C3F30803002585F31188BFF36F8F02F0E2
:104540007F44B4F17F4F12D102F00C04082C0ED03E
:1045500012074EBF0E46064601250022033B8DF88A
:104560000720032B58D8DFE803F0044F534C2E46A6
:10457000F3E72D4BDC6A14F002044DD1DA6A002A0D
:1045800019DBDC6A14F0804415D0B36933F8022CCF
:104590004DF602739A420DD003F1604303F6266391
:1045A0001B7803B30DF1070201213046FFF756FFD8
:1045B000044600E034689DF8073093B92022314664
:1045C00002A813F0B9F8099B45B3C3F3080222B956
:1045D0006FEA53236FEA4323099302A9204613F09D
:1045E00064F80AB070BD114B1B782BB10DF10701B7
:1045F0000120FFF769FFDBE70D4B1C88A4B2002CFC
:10460000D9D0FFF77FFFD3E70DF107020021CCE7F8
:104610000DF107010020ECE70024CCE723F4FF7341
:1046200023F00103D8E700BF00ED00E029ED00E032
:104630002AED00E0024A536943F0100353617047CA
:1046400000ED00E0EFF30880EFF3098101B5724659
:10465000FFF76AFF01BD00BF044800232021C218F4
:104660000133272B82F80013F9D1704700E100E0F5
:1046700015F0E2FE202080F3118808484FF4026113
:10468000401880F30988EFF314800221084380F377
:104690001488BFF36F8FFFF7EFFD0000C0560020B6
:1046A000064B9B68834207D1EFF3058323B1044A8D
:1046B000536843F08053536011F0C2BDD8430020CB
:1046C00000ED00E0024B034A0348012100F068B806
:1046D000000001200000002020A70100826E054B91
:1046E000203A1A60044A2021C3E901121846012128
:1046F00000F060B83C28002000000B15F0B51E4FFC
:1047000000268E4201DB1046F0BD446884B353B1ED
:1047100004F1FF3C14EA0C0F18D11F2C16D90568C0
:104720001CEA050F12D1202CD2B20568D0F808C0BF
:104730000FD9B4F1004F0ED8013CB4FA84F4C4F19F
:104740001F046400072A4CEA040406D96FF015021E
:10475000D9E70824F6E73E24F4E725F01F051543C2
:1047600045F0100544F00104BA60FD6001323C617F
:1047700001360C30C5E700BF90ED00E0034B052289
:104780005A60BFF34F8FBFF36F8F704790ED00E01B
:10479000BFF35F8F014B00225A60704790ED00E03D
:1047A00010B5034C01232278FFF7A8FF207010BD3D
:1047B0007944002008B5084A00231278FFF79EFFCD
:1047C00010F1160F03D0054B0022072800DD08BDAD
:1047D00098601A610130F8E77944002090ED00E01C
:1047E00013490868082810B51ED8FFF7D1FF114CEF
:1047F00049680022904201F10C0105D10E4B18705E
:10480000FFF7BCFF002010BDA26051F80C3C23F064
:104810001F03134343F01003E36051F8043C43F0DB
:10482000010323610132E5E74FF0FF30EBE700BF02
:104830002CA7010090ED00E079440020014B1860A6
:10484000704700BFA40100204FF02003EFF3118256
:1048500083F31288BFF36F8F06490123C1F84035F7
:104860004FF08041C1F8783582F31188BFF36F8F24
:104870000020704700E0014020B1034B800143F06D
:1048800001031847704700BF10A70100F0B4027879
:10489000012A04460B4617D01AB1022A2CD0F0BCCC
:1048A0007047184A0D4602F11007106851682E46ED
:1048B00003C60832BA423546F7D1127832706288A0
:1048C0005A73120A9A73EAE70E4A0D4602F110076C
:1048D000106851682E4603C60832BA423546F7D1F1
:1048E0001278327062685A73C2F30721120CDA73BD
:1048F000120A99731A74D2E7014611221846F0BCC5
:1049000012F01ABF6ABA010038B50546054814F01E
:104910003EFE044620B10021083014F057FE2575F4
:10492000204638BDA00800200C4BD3F8583110B5F4
:1049300033B902460B460120BDE81040FFF7E4BF43
:10494000184614F054FE01230021037581810446AA
:10495000083014F03BFE204610BD00BF00000020D0
:1049600070B504460E2C0D461046194614D30F2C74
:104970000ED9132C10D10D4814F009FE044628B1AD
:104980000021083014F022FE01232375204670BD5B
:10499000BDE87040FFF7C8BF02460B460DB10448A2
:1049A000EAE70120BDE87040FFF7AEBFC80800206D
:1049B0002808002038B583681A789AB9B3F80140FE
:1049C000204601F0A7FC054668B96FEA04500A4A80
:1049D00006236FEA105032F8021B09B922F8020CC4
:1049E000013BF8D138BD012101F09CFC2846BDE80F
:1049F000384013F0F6BB00BF184400201A280BD82B
:104A00000123074A03FA00F0104207D110F0200FEB
:104A10000CBF0220032070470220704718467047E1
:104A200000C0080410B501210446083014F036FE19
:104A300021460723024A0078BDE8104012F076BFF5
:104A40007CA7010013B50C4C0146052294F88F0099
:104A500001F0F4FD70B9094B18689A8800909B79B1
:104A6000ADF804206946042294F88F008DF80630D2
:104A700001F0E4FD02B010BD00000020F0A601002E
:104A8000F8B5074690790E4615460FF0D9F8304B29
:104A900083425BD128460FF0DBF82E4C0C2303FB3E
:104AA00000404388BB4251D12B4FD7F8580120B169
:104AB0000FF082F90023C7F8583128460FF0C8F8E4
:104AC0000C2707FB00404368E3B1DEB928460FF02E
:104AD000BFF807FB004001224068D0E90031007AAE
:104AE00001F01F07BA40490918B3BFF35B8F03EB0E
:104AF000810353E8001F114343E800100028F8D158
:104B0000BFF35B8F28460FF0A3F80C2707FB00408C
:104B10008368DBB128460FF09BF87843265428467B
:104B20000FF096F807FB00408068BDE8F84010F0F1
:104B3000B9BED24303EB8103BFF35B8F53E8001F81
:104B4000114043E800100028DAD0F7E7F8BD00BFB5
:104B500078080020482800200000002038B50421F3
:104B60000446083014F09AFD4578017840882246C2
:104B7000FFF786FF25B10348BDE8384010F092BE2C
:104B800038BD00BF4001002038B50321044608307D
:104B900014F084FDA36805781978B0F80100224666
:104BA000FFF76EFF25B10348BDE8384010F07ABE2C
:104BB00038BD00BF4001002010B5C1E900239DF8B9
:104BC00008300B720C460FF043F8034A0C2303FB2A
:104BD0000020446010BD00BF482800202DE9F84F98
:104BE0004FF0FF324FF0FF3382461648164F89468A
:104BF00014F0CDFC044600F10808002100264046D0
:104C000014F0E4FC267520460FF022F80C2505FB75
:104C10000070A0F802A020460FF01AF805FB007003
:104C2000866020460FF014F805FB007003214660F3
:104C3000404614F00CFD80F80290A0F800A0204639
:104C4000BDE8F88F7808002048280020F0B5144609
:104C500087B00D4621B9FFF7C1FF0546002848D0AF
:104C600001220021684615F050F828460EF0F0FFAA
:104C7000214E0C2303FB0060C0F808D0284614F036
:104C8000B6FC01461D4814F0A5FC4FF4A0220023F9
:104C9000684610F02DFE074680B14FF49973184A0C
:104CA0001849194811F027FF3946184811F023FF19
:104CB000404080F311884FF0030002DF28460EF0D9
:104CC000C7FF0C235843365C56B128460FF074F8E2
:104CD000092E0CBF6FF06E006FF0040007B0F0BD3E
:104CE00014B125603046F9E728460FF065F82046F4
:104CF000F4E76FF06800F1E7482800205C0100202D
:104D000093BA0100C0BA0100C9BA0100E6BA0100B5
:104D100073B53E4DD5F87431996811F0010121D178
:104D200001AA40F60340FFF791FF0446002869D12D
:104D3000019B9B681B7893B9BFF35B8F2B4653F89D
:104D4000F42FBFF35B8F02F00502BFF35B8F53E8D4
:104D5000001F43E800200028F9D1BFF35B8F0198C2
:104D60000FF02AF801AA002141F20300FFF76EFFBD
:104D70000446002846D1019B254899680822013144
:104D800012F0DAFC01980FF017F8214601AA41F25F
:104D90000100FFF75BFF0446002833D101988368C8
:104DA0005A7885F89020D9789A7842EA0122A5F8B5
:104DB00092201A7985F89120197ADA7942EA01224B
:104DC000A5F894205A799B7942EA0323A5F89630F6
:104DD0000EF0F2FF214601AA41F20200FFF736FF72
:104DE000044678B9019B0B4899684022013112F0C2
:104DF000A3FC01980EF0E0FF95F89C305E060BD402
:104E00006FF01204204602B070BD00BF0000002009
:104E100098000020A0000020214601AA42F20300D1
:104E2000FFF714FF04460028ECD1019B97489968CE
:104E30000822013112F080FC01980EF0BDFF2146DE
:104E400001AA42F20200FFF701FF04460028D9D16F
:104E5000019B9B68B3F80120A5F8242191B221B1F0
:104E6000DA788B48114614F050FF01980EF0A4FF39
:104E700095F89C4014F0200400F0EC8095F8BC30CC
:104E80001C0711D501AA002142F21C00FFF7DEFE2B
:104E900004460028B6D10198836853F8012F5B6857
:104EA000C5E940230EF088FF95F8F830980623D521
:104EB0000DF10201684612F0ECFD04460028A1D174
:104EC000042142F22400FFF789FE0646002800F084
:104ED000C8800421083014F0BAFBBDF8003003800C
:104EE000BDF8023043802246314642F22400FFF7EB
:104EF000ADFE0446002885D1082142F20100FFF7EB
:104F00006DFE0446002800F0AC800821084414F02F
:104F10009EFB95F8F82012F0020F14BF2F230F23E9
:104F2000910695F8F92048BF43F0400312F0090FAD
:104F300018BF43F4006300220370C3F307234370D8
:104F40008270C270027142718271C271214642F256
:104F50000100FFF77BFE044600287FF453AF95F86D
:104F60009C309A061ED4B5F82411D9B901AA41F291
:104F70000500FFF76BFE044600287FF443AFB5F849
:104F8000243163B9019B9B685A78997842EA0122DF
:104F9000A5F824219A883E48114614F0B6FE0198DF
:104FA0000EF00AFF082140F60140FFF717FE044605
:104FB000002856D00821084414F049FB1023037040
:104FC000882300224370022620238270C67002715B
:104FD00042718271C371214640F60140FFF736FEEF
:104FE000044600287FF40EAF014601AA4FF60140A7
:104FF000FFF72CFE044648BB01980EF0DDFE21466B
:1050000001AA4FF60240FFF721FE0446F0B9019BCA
:10501000204899683246013112F08EFB01980EF05B
:10502000CBFE95F8E1305B0710D501AA21464FF67B
:105030000340FFF70BFE48B9019B1748996801220E
:10504000114412F079FB01980EF0B6FE00F05EFDFF
:105050000446D7E6022140F66D40FFF7BFFD064645
:1050600010B96FF06804CDE60221083014F0EFFAB1
:105070000123447003702246314640F66D40FFF72D
:10508000E5FD044600283FF4F9AEBBE6F800002039
:1050900028010020E1000020E0000020024BD3F8AE
:1050A00074311B69184700BF0000002038B5054661
:1050B0000C4619B9FFF792FD044698B140F6354306
:1050C0009D4209D12046FFF7E9FF054610B1204671
:1050D0000EF072FE284638BD2146044814F07AFAD4
:1050E0000025F7E76FF06805F4E700BF5C010020DA
:1050F000837A072B37B504461FD1BFF35B8F436814
:10510000BFF35B8F98041AD4E37823B1184B93F85C
:10511000F830190713D5022142F21600FFF75EFDA1
:10512000054660B10221083014F091FA238803800B
:10513000294642F21600FFF7B9FF03B030BD0C4B11
:1051400093F8F8209206F8D5D3F874319B689B0742
:10515000F3D50DF1060101A812F09BFC0028ECD15B
:10516000BDF80620BDF80410204612F0E5FCE4E787
:10517000000000202DE9F043B0F801806A4A1FFAD0
:1051800088F9054685B049F470410023104632F88D
:10519000024BA14224D1002220F8132001262C78B2
:1051A0001CB33C2C5CD100F057FDBFF35B8F10307B
:1051B00050E8003F23F0400340E80032002AF7D1D6
:1051C000BFF35B8F0020FFF73DFC0546002847D06A
:1051D0004472002101F0A6F8284613F002F83FE0DF
:1051E0000133062BD3D10026D9E72B79023B012BC3
:1051F00005F1040737D80722394602A812F09CFAB5
:105200009DF808300622023B05F111010DF1010065
:105210008DF8083012F090FA01238DF80030EB7809
:10522000012B19D102A8FFF70DFCEB78012B0446E6
:1052300011D100F011FDBFF35B8F00F1100353E8B3
:10524000002F22F0400243E800210029F7D1BFF3EC
:105250005B8F12F0FEFEDCB91F21484612F031FCD4
:1052600005B0BDE8F083EB78012B04BF2F4B93F81A
:105270008F403946204612F08EFD0722014602A8D3
:1052800012F05AFA07223946684612F055FAC6E774
:105290002046072220F8888B02A912F04DFA2A7EB8
:1052A000EB7D43EA0223A4F89E30AA7E6B7E43EA9C
:1052B0000223A4F8A430EB7E2A7F43EA0223A4F859
:1052C000A630EB78E3700025012B65721AD1072216
:1052D000694604F18F0012F02FFA00F0BDFC217A2C
:1052E000124FC1EBC1010722394404F1960012F0BC
:1052F00023FAD7F804112A4601F04003134301D0E2
:1053000000F052FE0721204601F00CF81EB10121E9
:10531000204601F007F8204612F0A4FF2046FFF7D0
:10532000E7FE204659E700BF184400200000002097
:105330002DE9F84FDFF80C81DFF820A1D8F80C3008
:105340003F486FF35233C8F80C3000F097FF471C0A
:105350004FF0FF324FF0FF3339463A4811F06AF907
:1053600060B140F6891352463749384811F0C3FB03
:10537000404080F311884FF0030002DFDFF8E09037
:10538000304DA9F5AE76A9F11C0B17B910F09CFEB3
:10539000D4E7EB68C3F34533042B47D12B7B002BB9
:1053A00047D100220023484614F0F6F8044660B9BD
:1053B0004FF4126352462649244811F09CFB4040AA
:1053C00080F311884FF0030002DF4FF0FF324FF0FF
:1053D000FF33584610F08CFAD6F8580120B10EF081
:1053E000EBFC0023C6F85831204614F000F9C6F84B
:1053F00058012046FFF752FEC0B1164810F052FA8D
:1054000020460EF025FC144A0C2303FB00201F212C
:1054100022464088FFF734FBD6F858010EF0CCFC4A
:1054200000232046C6F858310EF0C6FC1435013F63
:10543000ABE7012BFAD12869383801F0F5F9F5E727
:10544000BC010020A8010020C0BA0100C9BA0100B7
:1054500089BB0100400100204828002093BA0100C8
:105460005C0100202DE9F041044600F108073846B0
:1054700014F024F9A689012E05460CD840F61553E0
:105480001B4A1C491C4811F036FB404080F3118830
:105490004FF0030002DF0221384614F0FFF8804687
:1054A0000078FFF7ABFAC20707460CD440F6195351
:1054B0000F4A1249104811F01EFB404080F311883A
:1054C0004FF0030002DF05230D4A98F80000214643
:1054D00012F02CFABB0706D52369A68113FA85F5CD
:1054E000A560BDE8F0812046BDE8F0410EF064BC47
:1054F00093BA010057BB0100C9BA010070BB01009B
:10550000E4A7010070B5037D012B044636D0032BC0
:1055100063D18389032B0CD84FF4DB73314A3249B2
:10552000324811F0E8FA404080F311884FF0030050
:1055300002DF042104F1080014F0B0F8FF224388D0
:1055400006886275A289C6F30B009A42E08203D0F6
:1055500020460EF031FC0FE000F0DCFE054600288E
:10556000F6D000F085FF320B60752146284612F018
:10557000E6FD284612F035FE002070BD8389012B20
:105580000CD840F60D13174A1749184811F0B3FA12
:10559000404080F311884FF0030002DF022104F144
:1055A000080014F07BF805460078FFF727FA830718
:1055B0000CD440F611130B4A0D490C4811F09BFA1C
:1055C000404080F311884FF0030002DF0423094AB2
:1055D0002878214612F0AAF9BAE70EF0EDFB6FF039
:1055E0001500CAE793BA010057BB0100C9BA010010
:1055F00006BB0100C4A7010010B5037D012B0446C2
:105600000CD040F65C53084A0849094811F073FA77
:10561000404080F311884FF0030002DF2046FFF77F
:1056200021FF002010BD00BF93BA010034BB010070
:10563000C9BA0100084AD2F874313BB9C16841B116
:10564000016931B1C2F87401184670476FF07700F4
:1056500070476FF01500704700000020064BBFF345
:105660005B8F53E8002F42F0020243E8002100293B
:10567000F7D1BFF35B8F7047F400002010B5FFF740
:1056800047FB20B901F038F908B9FFF7E7FF034BF2
:105690001B6813B1BDE81040184710BD60280020FA
:1056A00070B5274DD5F8743188B00646002B41D02F
:1056B000BFF35B8F05F1F40252E8003F43F00101B4
:1056C00042E800100028F7D1BFF35B8F13F001030D
:1056D00033D11C4A1660002000216FF00802CDE98A
:1056E0000601CDE902320493CDE900334FF4207274
:1056F000154B164916480FF0FFFF1649144814F0D1
:105700002BFAD5F87431DB689847044650B966B96E
:10571000FFF7FEFA044628B901F0EEF8044608B98E
:10572000FFF79CFF204608B070BD05F1E40010F0C3
:1057300025FAF7E76FF01204F4E76FF07704F1E76A
:10574000000000206028002031530000A048002005
:10575000F00800207BBA01000048704781BA0100C0
:10576000F8B50B4E0746002596F82A30ECB2A34256
:1057700002D86FF0010409E0C4EBC40107223144F0
:10578000384611F0C9FF01350028EDD12046F8BD9B
:105790000000002038B506221349054611F0BCFF71
:1057A0000446E0B1062142F20500FFF717FA04466D
:1057B000B8B106222946083013F04FFF21460022D7
:1057C00042F20500FFF742FA044640B90622294694
:1057D000054811F0B1FF054B012283F888202046CF
:1057E00038BD6FF06804FAE789000020000000204F
:1057F0007FB504460E46A1B1002507226946304612
:105800000095CDF8035011F087FF50B11248C4EB5A
:10581000C40407223146204411F08EFF284604B00C
:1058200070BD02A812F043F805460028F6D102A880
:10583000FFF796FF0028F4DA0748C4EBC4040444D9
:10584000072202A9204611F077FF002EE6D007229A
:1058500021463046E0E700BF0000002038B50D4685
:10586000064991F82A4038B12B689C4228BF1C4653
:10587000C4EBC40211F060FF2C6038BD00000020B2
:105880007FB50C46054620B9ECB16FF0150004B0A9
:1058900070BD0023072269460093CDF8033011F054
:1058A0003BFF0028F0D02B78012BEED1AB7903F031
:1058B000C003C02BE9D12846FFF752FF0028E3DBE5
:1058C0006FF07700E3E7144E96F82A30062B1FD0CE
:1058D000214606F1F40012F055FA60B196F82A401C
:1058E0002946631C204686F82A30FFF781FF0028EE
:1058F00008BF2046CBE7002DC7D0072202A92846C3
:105900000294CDF80B4011F007FF0028E6D1BCE768
:105910006FF00B00BBE700BF0000002070B586B041
:10592000064601AA002141F20900FFF78FF905465A
:1059300070B9019B02909C68ADF80C0001340622FE
:1059400002A9204611F0E8FE20B901980EF034FAC1
:10595000002016E00C4B186804909B88ADF81430BA
:10596000062204A9204611F0D7FE0028EDD0062219
:105970002146701C11F0E0FE019835700EF01CFA03
:10598000012006B070BD00BFF7A6010007B568464C
:10599000FFF7C4FF054B83F82A0018B169460020C1
:1059A000FFF726FF03B05DF804FB00BF00000020F6
:1059B0002DE9F341154B93F8E23013F0010407464B
:1059C0000E4615D001AA00214FF60940FFF73EF917
:1059D0000546C8B9019B99684C78B44228BF344643
:1059E0004FF016088E1CA54206DB01980EF0E4F974
:1059F000204602B0BDE8F08108FB05701622314652
:105A000011F09AFE0135EEE70024F1E700000020D6
:105A1000F0B5164D95F82A40A5B034B9062103A873
:105A2000FFF7C6FF85F82A00B8B900210846FFF73E
:105A300027FF10E003AB07FB063106220DF105003E
:105A400011F07AFE012301A930468DF80430FFF7EA
:105A5000CFFE013410B125B0F0BD162795F82A30DD
:105A6000E6B2B342E6D80020F5E700BF0000002010
:105A70002DE9F8431E4611F001030D4691460478C6
:105A800026D0214F2AB18B0603D597F8F830580657
:105A900036D54FEAC408A8EB0403FB5C012B08D001
:105AA000A8EB04043B5DB9F1000F0CD1337000206A
:105AB00007E0072010FB04303844FFF76BFE002896
:105AC000EED0BDE8F883A90648BF43F00203EDE736
:105AD0004A0711D5E7000C4D3A1BAA5C012A09D1EF
